:020000040800F2
:1000000000280020C1110008C50D0008CB0D000814
:10001000D10D0008D70D0008DD0D0008000000001C
:10002000000000000000000000000000E30D0008D8
:10003000EF0D000800000000FB0D0008070E00088F
:100040000912000809120008091200080912000824
:100050000912000809120008091200080912000814
:100060000912000809120008091200080912000804
:1000700009120008091200080912000809120008F4
:1000800009120008091200080912000809120008E4
:1000900009120008091200080912000809120008D4
:1000A00009120008091200080912000809120008C4
:1000B000150E0008091200080000000009120008CF
:1000C00009120008000000000000000009120008EA
:1000D00000000000091200080912000800000000DA
:1000E00009120008091200080912000800000000A7
:1000F0000000000000000000000000000000000000
:0C01000000000000000000005FF808F1A3
:10010C0010B5054C237833B9044B13B10448AFF345
:10011C0000800123237010BD54000020000000005B
:10012C006028000808B5034B1BB103490348AFF323
:10013C00008008BD00000000580000206028000866
:10014C0080B400AF064B1B68002B04D0044B00227C
:10015C001A60012300E000231846BD4680BC70479E
:10016C007000002080B400AF034B01221A6000BF66
:10017C00BD4680BC704700BF7000002080B500AF4A
:10018C001F4B1B681F4A13601F4B1B681C4A1360D4
:10019C0001211E4801F01EFB03461A461A4B1A6039
:1001AC001B4B1B680F2B1AD0102B21D1154B1A6827
:1001BC00134B1B689A421DD1114B1A68124B1B68CA
:1001CC009A4217D1104B1B68002B13D1FFF7CAFFB3
:1001DC00C82000F029FE0E4B0F221A600AE000F036
:1001EC0039FE0346002B07D0094B10221A6003E09E
:1001FC0000BF02E000BF00E000BF00BF80BD00BF39
:10020C00040000200000002008000020000C014029
:10021C002000002080B582B000AF78607B68032B93
:10022C005ED801A252F823F0450200086F020008C4
:10023C0099020008C302000800220821354801F089
:10024C00E0FA01221021334801F0DBFA01222021CF
:10025C00304801F0D6FA012240212E4801F0D1FAA3
:10026C0053E0012208212B4801F0CBFA0022102187
:10027C00284801F0C6FA01222021264801F0C1FAD3
:10028C0001224021234801F0BCFA3EE00122082162
:10029C00204801F0B6FA012210211E4801F0B1FAF3
:1002AC00002220211B4801F0ACFA01224021194800
:1002BC0001F0A7FA29E001220821164801F0A1FA61
:1002CC0001221021134801F09CFA0122202111482F
:1002DC0001F097FA002240210E4801F092FA14E046
:1002EC00012208210B4801F08CFA01221021094847
:1002FC0001F087FA01222021064801F082FA01223E
:10030C004021044801F07DFA00BF00BF0837BD460C
:10031C0080BD00BF000C014080B582B000AF78609A
:10032C007B68092B00F2B28101A252F823F000BFC6
:10033C0065030008B7030008090400085B04000803
:10034C00AD040008FF04000851050008A3050008CF
:10035C00F50500084706000800224021CE4801F0B0
:10036C0050FA00228021CC4801F04BFA00224FF4C5
:10037C008071C94801F045FA00224FF40071C6485B
:10038C0001F03FFA00224FF48061C34801F039FAC2
:10039C0000224FF40061C04801F033FA01224FF4FF
:1003AC008051BD4801F02DFA71E101224021BA487B
:1003BC0001F027FA00228021B74801F022FA00222E
:1003CC004FF48071B44801F01CFA01224FF4007113
:1003DC00B14801F016FA01224FF48061AE4801F0E9
:1003EC0010FA01224FF40061AB4801F00AFA012225
:1003FC004FF48051A84801F004FA48E10022402152
:10040C00A54801F0FEF900228021A34801F0F9F97A
:10041C0001224FF48071A04801F0F3F900224FF44F
:10042C0000719D4801F0EDF900224FF480619A486B
:10043C0001F0E7F901224FF40061974801F0E1F96E
:10044C0000224FF48051944801F0DBF91FE10022A7
:10045C004021914801F0D5F9002280218E4801F00D
:10046C00D0F900224FF480718B4801F0CAF90022B8
:10047C004FF40071884801F0C4F901224FF48061F7
:10048C00854801F0BEF901224FF40061824801F069
:10049C00B8F900224FF480517F4801F0B2F9F6E030
:1004AC00012240217C4801F0ACF9002280217A48DD
:1004BC0001F0A7F900224FF48071774801F0A1F9FF
:1004CC0001224FF40071744801F09BF901224FF4A2
:1004DC008061714801F095F900224FF400616E487B
:1004EC0001F08FF900224FF480516B4801F089F92B
:1004FC00CDE000224021684801F083F901228021DF
:10050C00654801F07EF900224FF48071624801F0D9
:10051C0078F900224FF400715F4801F072F9012262
:10052C004FF480615C4801F06CF900224FF40061DB
:10053C00594801F066F900224FF48051564801F0F9
:10054C0060F9A4E000224021534801F05AF901223D
:10055C008021514801F055F900224FF480714E482A
:10056C0001F04FF900224FF400714B4801F049F9AA
:10057C0000224FF48061484801F043F900224FF407
:10058C000061454801F03DF900224FF4805142488A
:10059C0001F037F97BE0002240213F4801F031F9AE
:1005AC00002280213C4801F02CF900224FF480718C
:1005BC00394801F026F901224FF40071364801F058
:1005CC0020F901224FF48061334801F01AF901221D
:1005DC004FF40061304801F014F901224FF48051BE
:1005EC002D4801F00EF952E0002240212A4801F07A
:1005FC0008F900228021284801F003F900224FF469
:10060C008071254801F0FDF800224FF4007122485A
:10061C0001F0F7F800224FF480611F4801F0F1F867
:10062C0000224FF400611C4801F0EBF800224FF45B
:10063C008051194801F0E5F829E0002240211648C4
:10064C0001F0DFF800228021134801F0DAF80022D3
:10065C004FF48071104801F0D4F800224FF400716F
:10066C000D4801F0CEF801224FF480610A4801F0E8
:10067C00C8F800224FF40061074801F0C2F80022CC
:10068C004FF48051044801F0BCF800E000BF00BFFB
:10069C000837BD4680BD00BF0008014080B500AFE3
:1006AC00114B1B681846FFF7B5FD0F4B1B680F4A23
:1006BC0052F823301846FFF72FFE00F0F3FB0346E9
:1006CC00002B0FD04FF4FA7000F0D6FB064B1B68D2
:1006DC0001335A4203F0030302F0030258BF5342A2
:1006EC00014A136000BF80BD780000202400002068
:1006FC0080B500AF284B1B680B3B032B49D801A2DC
:10070C0052F823F0210700083F0700085F07000894
:10071C007F07000801220121204801F072F8012214
:10072C0002211E4801F06DF8012204211B4801F042
:10073C0068F800220121194801F063F80122022116
:10074C00164801F05EF801220421144801F059F812
:10075C0020E001220121114801F053F8002202216E
:10076C000E4801F04EF8012204210C4801F049F822
:10077C0010E001220121094801F043F80122022175
:10078C00064801F03EF800220421044801F039F833
:10079C0000E000BF00BF80BD180000200008014031
:1007AC0080B500AF284B1B680B3B032B49D801A22B
:1007BC0052F823F0D1070008EF0700080F080008D3
:1007CC002F08000801220821204801F01AF8012204
:1007DC0010211E4801F015F8012220211B4801F0C0
:1007EC0010F800220821194801F00BF80122102101
:1007FC00164801F006F801222021144801F001F8F6
:10080C0020E001220821114800F0FBFF00221021FA
:10081C000E4800F0F6FF012220210C4800F0F1FFF9
:10082C0010E001220821094800F0EBFF0122102101
:10083C00064800F0E6FF00222021044800F0E1FF0A
:10084C0000E000BF00BF80BD1C000020000801407C
:10085C0080B500AF324B1B680E2B40D00E2B5BDCEF
:10086C000C2B02D00D2B1DD056E001212D4800F091
:10087C00E0FF012202212B4800F0C3FF01220421DA
:10088C00284800F0BEFF0821264800F0D2FF0122C4
:10089C001021244800F0B5FF01222021214800F04E
:1008AC00B0FF3AE0012201211E4800F0AAFF02210C
:1008BC001C4800F0BEFF012204211A4800F0A1FFE1
:1008CC0001220821174800F09CFF1021154800F068
:1008DC00B0FF01222021134800F093FF1DE00122FC
:1008EC000121104800F08DFF012202210D4800F07B
:1008FC0088FF04210B4800F09CFF012208210948C5
:10090C0000F07FFF01221021064800F07AFF202121
:10091C00044800F08EFF00E000BF00BF80BD00BFA8
:10092C00180000200008014080B500AF214B1B6867
:10093C000E2B26D00E2B34DC0C2B02D00D2B10D012
:10094C002FE000F0D7FA0346002B2CD0194B0E22C7
:10095C001A60FFF7CDFE184B1B68184600F0B4FA6E
:10096C0021E000F0C7FA0346002B1ED0114B0C22DD
:10097C001A60FFF7BDFE114B1B68184600F0A4FA75
:10098C0013E000F0B7FA0346002B10D0094B0D22F0
:10099C001A60FFF7ADFE0A4B1B68184600F094FA7C
:1009AC0005E000BF04E000BF02E000BF00E000BFB4
:1009BC0000BF80BD18000020140000200C00002097
:1009CC001000002080B500AF214B1B680E2B26D0E9
:1009DC000E2B34DC0C2B02D00D2B10D02FE000F0A2
:1009EC00B1FA0346002B2CD0194B0E221A60FFF7DC
:1009FC00D7FE184B1B68184600F08EFA21E000F069
:100A0C00A1FA0346002B1ED0114B0C221A60FFF7E3
:100A1C00C7FE114B1B68184600F07EFA13E000F07D
:100A2C0091FA0346002B10D0094B0D221A60FFF7E8
:100A3C00B7FE0A4B1B68184600F06EFA05E000BFC3
:100A4C0004E000BF02E000BF00E000BF00BF80BDBB
:100A5C001C000020140000200C00002010000020BE
:100A6C0080B500AF00F096FA0346002B05D0FFF7D7
:100A7C00EFFE4FF4FA7000F077FA00BF80BD000073
:100A8C0080B500AF00F0BCFB00F046F800F0CCF8ED
:100A9C0000F07EF8184801F01DFB184B01221A607B
:100AAC00174B10221A60174B41F288321A60164B02
:100ABC004FF4FA621A60154B40F6B8321A604FF4D4
:100ACC00FA7000F0D9F9124B0C221A60FFF710FEE5
:100ADC00104B0E221A60FFF763FE0A4B1B68184678
:100AEC0000F0F2F9094B1B68184600F015FA00F0FB
:100AFC00CDFAFFF7D3FDFAE7900000207400002038
:100B0C00200000200C000020100000201400002009
:100B1C00180000201C00002080B590B000AF07F139
:100B2C00180328220021184601F08CFE3B1D0022E0
:100B3C001A605A609A60DA601A610223BB61012361
:100B4C00BB621023FB6200237B6307F1180318467A
:100B5C0000F088FE0346002B01D000F0D1F80F23E3
:100B6C007B600023BB600023FB6000233B61002300
:100B7C007B613B1D0021184601F0F4F80346002B65
:100B8C0001D000F0BDF800BF4037BD4680BD00006D
:100B9C0080B586B000AF07F1080300221A605A60D6
:100BAC009A60DA603B4600221A605A601D4B4FF087
:100BBC0080421A601B4B41F63F725A60194B00225F
:100BCC009A60184B0A22DA60164B00221A61154BF8
:100BDC0000229A61134801F02DFA0346002B01D034
:100BEC0000F08EF84FF48053BB6007F108031946F0
:100BFC000C4801F0C3FB0346002B01D000F080F839
:100C0C0000233B6000237B603B461946054801F0FE
:100C1C008BFD0346002B01D000F072F800BF183793
:100C2C00BD4680BD9000002080B586B000AF07F1B6
:100C3C00080300221A605A609A60DA60274B9B699D
:100C4C00264A43F004039361244B9B6903F004038D
:100C5C007B607B68214B9B69204A43F008039361BE
:100C6C001E4B9B6903F008033B603B68002241F676
:100C7C00FF711B4800F0C5FD00227821194800F0D7
:100C8C00C0FD41F6FF73BB600123FB6000233B6199
:100C9C0002237B6107F108031946114800F020FC80
:100CAC000123BB600023FB6001233B6107F10803B8
:100CBC0019460C4800F014FC7823BB600123FB6040
:100CCC0000233B6102237B6107F1080319460548A9
:100CDC0000F006FC00BF1837BD4680BD0010024076
:100CEC0000080140000C014080B582B000AF786074
:100CFC0000F062F9FFF742FA00BF0837BD4680BD2D
:100D0C0080B400AF72B600BFFEE7000080B485B0BF
:100D1C0000AF154B9B69144A43F001039361124BCE
:100D2C009B6903F00103BB60BB680F4BDB690E4A88
:100D3C0043F08053D3610C4BDB6903F080537B6031
:100D4C007B680A4B5B68FB60FB6823F0E063FB602D
:100D5C00FB6843F08063FB60044AFB68536000BF90
:100D6C001437BD4680BC70470010024000000140A3
:100D7C0080B584B000AF78607B681B68B3F1804F9E
:100D8C0013D10C4BDB690B4A43F00103D361094BC4
:100D9C00DB6903F00103FB60FB68002200211C20CF
:100DAC0000F067FB1C2000F080FB00BF1037BD4635
:100DBC0080BD00BF0010024080B400AFFEE780B4DD
:100DCC0000AFFEE780B400AFFEE780B400AFFEE7F3
:100DDC0080B400AFFEE780B400AF00BFBD4680BC5E
:100DEC00704780B400AF00BFBD4680BC704780B474
:100DFC0000AF00BFBD4680BC704780B500AF00F0AF
:100E0C0045FA00BF80BD000080B500AF024801F07C
:100E1C00ADF900BF80BD00BF9000002080B400AFD2
:100E2C0000BFBD4680BC704780B483B000AF786013
:100E3C007B68064A82FB03129210DB17D31A044A12
:100E4C00136000BF0C37BD4680BC70476766666692
:100E5C003800002080B400AF064B1B68002B04D078
:100E6C00044B00221A60012300E000231846BD4603
:100E7C0080BC70477C00002080B483B000AF7860E9
:100E8C007B68064A82FB03129210DB17D31A044AC2
:100E9C00136000BF0C37BD4680BC70476766666642
:100EAC003C00002080B400AF064B1B68002B04D024
:100EBC00044B00221A60012300E000231846BD46B3
:100ECC0080BC70478000002080B483B000AF786095
:100EDC007B68064A82FB03129210DB17D31A044A72
:100EEC00136000BF0C37BD4680BC704767666666F2
:100EFC004000002080B400AF064B1B68002B04D0D0
:100F0C00044B00221A60012300E000231846BD4662
:100F1C0080BC70478400002080B483B000AF786040
:100F2C007B68064A82FB03129210DB17D31A044A21
:100F3C00136000BF0C37BD4680BC704767666666A1
:100F4C004400002080B400AF064B1B68002B04D07B
:100F5C00044B00221A60012300E000231846BD4612
:100F6C0080BC70478800002080B483B000AF7860EC
:100F7C007B68064A82FB03129210DB17D31A044AD1
:100F8C00136000BF0C37BD4680BC70476766666651
:100F9C004800002080B400AF064B1B68002B04D027
:100FAC00044B00221A60012300E000231846BD46C2
:100FBC0080BC70478C00002080B400AF294B1B68AC
:100FCC00002B0BDD274B1B68013B264A1360254B7E
:100FDC001B68002B02DC244B01221A60234B1B687C
:100FEC00002B0BDD214B1B68013B204A13601F4B70
:100FFC001B68002B02DC1E4B01221A601D4B1B6868
:10100C00002B0BDD1B4B1B68013B1A4A1360194B61
:10101C001B68002B02DC184B01221A60174B1B6853
:10102C00002B0BDD154B1B68013B144A1360134B53
:10103C001B68002B02DC124B01221A60114B1B683F
:10104C00002B0BDD0F4B1B68013B0E4A13600D4B45
:10105C001B68002B02DC0C4B01221A6000BFBD4642
:10106C0080BC7047380000207C0000203C00002031
:10107C00800000204000002084000020440000205C
:10108C0088000020480000208C00002080B500AFB4
:10109C00434B1B68013B032B76D801A252F823F07B
:1010AC00BD100008F31000082511000857110008A6
:1010BC00FFF73AFCFFF786FCFFF742F80346002BDC
:1010CC0064D0384B0C221A60374B0C221A60FFF795
:1010DC000FFBFFF765FB324B02221A604FF4FA70DC
:1010EC00FFF742FF52E0FFF7BBFCFFF729F803467E
:1010FC00002B4DD02B4B0D221A602B4B0D221A605E
:10110C00FFF7F6FAFFF74CFB254B03221A604FF45E
:10111C00FA70FFF729FF3BE0FFF7A2FCFFF710F88E
:10112C000346002B36D01F4B0E221A601E4B0E228C
:10113C001A60FFF7DDFAFFF733FB194B04221A6034
:10114C004FF4FA70FFF710FF24E0FFF789FCFEF76D
:10115C00F7FF0346002B1FD0124B0C221A60124BC8
:10116C000E221A60FFF7C4FAFFF71AFB0F4B1B682D
:10117C001846FFF7A9FE0E4B1B681846FFF7CCFE6E
:10118C00074B01221A6007E000BF06E000BF04E035
:10119C0000BF02E000BF00E000BF00BF80BD00BF89
:1011AC0074000020180000201C0000200C000020FF
:1011BC00140000200C480D490D4A002302E0D458BD
:1011CC00C4500433C4188C42F9D30A4A0A4C002385
:1011DC0001E013600432A242FBD3FFF71FFE01F0C3
:1011EC000DFBFFF74DFC7047000000205400002061
:1011FC00A028000854000020DC000020FEE70000BE
:10120C0080B500AF084B1B68074A43F0100313600E
:10121C00032000F023F90F2000F008F8FFF776FD0B
:10122C000023184680BD00BF0020024080B582B06C
:10123C0000AF7860124B1A68124B1B7819464FF4AA
:10124C007A73B3FBF1F3B2FBF3F3184600F03BF9FE
:10125C000346002B01D001230EE07B680F2B0AD82C
:10126C00002279684FF0FF3000F003F9064A7B68E2
:10127C001360002300E0012318460837BD4680BDEB
:10128C0034000020500000204C00002080B400AF3F
:10129C00054B1B781A46054B1B681344034A136015
:1012AC0000BFBD4680BC704750000020D800002015
:1012BC0080B400AF024B1B681846BD4680BC70471B
:1012CC00D800002080B485B000AF78607B6803F054
:1012DC000703FB600C4BDB68BB60BA684FF6FF037F
:1012EC001340BB60FB681A02BB68134343F0BF6337
:1012FC0043F40033BB60044ABB68D36000BF1437AF
:10130C00BD4680BC704700BF00ED00E080B400AF6C
:10131C00044BDB681B0A03F007031846BD4680BC70
:10132C00704700BF00ED00E080B483B000AF03460F
:10133C00FB7197F90730002B0BDBFB7903F01F02D5
:10134C00064997F907305B09012000FA02F241F8CF
:10135C00232000BF0C37BD4680BC704700E100E085
:10136C0080B483B000AF03463960FB7197F9073046
:10137C00002B0ADB3B68DAB20C4997F907301201F3
:10138C00D2B20B4483F800230AE03B68DAB2084976
:10139C00FB7903F00F03043B1201D2B20B441A7613
:1013AC0000BF0C37BD4680BC704700BF00E100E0B9
:1013BC0000ED00E080B489B000AFF860B9607A60ED
:1013CC00FB6803F00703FB61FB69C3F10703042B04
:1013DC0028BF0423BB61FB690433062B02D9FB69CC
:1013EC00033B00E000237B614FF0FF32BB6902FA44
:1013FC0003F3DA43BB681A407B699A404FF0FF3124
:10140C007B6901FA03F3D9437B680B4013431846FD
:10141C002437BD4680BC704780B582B000AF786081
:10142C007B68013BB3F1807F01D301230FE00A4AB3
:10143C007B68013B53600F214FF0FF30FFF790FFAB
:10144C00054B00229A60044B07221A6000231846B1
:10145C000837BD4680BD00BF10E000E080B582B00B
:10146C0000AF78607868FFF72DFF00BF0837BD46E6
:10147C0080BD80B586B000AF0346B9607A60FB735F
:10148C0000237B61FFF742FF78617A68B96878695D
:10149C00FFF790FF024697F90F3011461846FFF7F9
:1014AC005FFF00BF1837BD4680BD80B582B000AF6E
:1014BC000346FB7197F907301846FFF735FF00BF5D
:1014CC000837BD4680BD80B582B000AF78607868C3
:1014DC00FFF7A2FF034618460837BD4680BD000043
:1014EC0080B48BB000AF7860396000237B6200233E
:1014FC003B6248E101227B6A02FA03F3FB613B6821
:10150C001B68FA691340BB61BA69FB699A4240F0E7
:10151C0037813B685B68A34A93425ED0A14A9342F1
:10152C0075D8A14A934258D09F4A93426FD89F4A8C
:10153C00934252D09D4A934269D89D4A93424CD0D3
:10154C009B4A934263D89B4A934246D0994A934212
:10155C005DD8122B2AD8122B59D801A252F823F09D
:10156C00E7150008C1150008D3150008151600086A
:10157C001B1600081B1600081B1600081B1600087B
:10158C001B1600081B1600081B1600081B1600086B
:10159C001B1600081B1600081B1600081B1600085B
:1015AC001B160008C9150008DD150008824A934275
:1015BC0013D02CE03B68DB683B6229E03B68DB68BE
:1015CC0004333B6224E03B68DB6808333B621FE07A
:1015DC003B68DB680C333B621AE03B689B68002B72
:1015EC0002D104233B6213E03B689B68012B05D1BD
:1015FC0008233B627B68FA691A6109E008233B62A5
:10160C007B68FA695A6103E000233B6200E000BF8B
:10161C00BB69FF2B01D87B6801E07B6804337B61DD
:10162C00BB69FF2B02D87B6A9B0002E07B6A083BFC
:10163C009B003B617B691A680F213B6901FA03F33C
:10164C00DB431A40396A3B6901FA03F31A437B699D
:10165C001A603B685B6803F08053002B00F09080AD
:10166C00564B9B69554A43F001039361534B9B695D
:10167C0003F00103BB60BB68514A7B6A9B080233D1
:10168C0052F82330FB607B6A03F003039B000F22AC
:10169C0002FA03F3DB43FA681340FB607B68494AA8
:1016AC0093420DD07B68484A934207D07B68474AE7
:1016BC00934201D1022304E0032302E0012300E062
:1016CC0000237A6A02F0030292009340FA681343F3
:1016DC00FB603B497B6A9B080233FA6841F8232084
:1016EC003B685B6803F48033002B06D0384B1A68D8
:1016FC003749BB6913430B6006E0354B1A68BB696D
:10170C00DB43334913400B603B685B6803F40033E5
:10171C00002B06D02E4B5A682D49BB6913434B60E6
:10172C0006E02B4B5A68BB69DB43294913404B60DD
:10173C003B685B6803F48013002B06D0244B9A683B
:10174C002349BB6913438B6006E0214B9A68BB6944
:10175C00DB431F4913408B603B685B6803F4001349
:10176C00002B06D01A4BDA681949BB691343CB60BE
:10177C0006E0174BDA68BB69DB4315491340CB60B5
:10178C007B6A01337B623B681A687B6A22FA03F33B
:10179C00002B7FF4AFAE00BF00BF2C37BD4680BC22
:1017AC00704700BF00003210000031100000221002
:1017BC000000211000001210000011100010024057
:1017CC000000014000080140000C014000100140E5
:1017DC000004014080B485B000AF78600B467B807C
:1017EC007B689A687B881340002B02D00123FB7323
:1017FC0001E00023FB73FB7B18461437BD4680BC0D
:10180C00704780B483B000AF78600B467B80134682
:10181C007B707B78002B03D07A887B681A6103E09D
:10182C007B881A047B681A6100BF0C37BD4680BCEC
:10183C00704780B485B000AF78600B467B807B68C6
:10184C00DB68FB607A88FB6813401A04FB68D94399
:10185C007B880B401A437B681A6100BF1437BD4666
:10186C0080BC704780B586B000AF78607B68002B79
:10187C0001D101236CE27B681B6803F00103002B90
:10188C0000F08780924B5B6803F00C03042B0CD0A8
:10189C008F4B5B6803F00C03082B12D18C4B5B68ED
:1018AC0003F48033B3F5803F0BD1894B1B6803F4F1
:1018BC000033002B6CD07B685B68002B68D1012354
:1018CC0046E27B685B68B3F5803F06D1804B1B68B2
:1018DC007F4A43F4803313602EE07B685B68002BF7
:1018EC000CD17B4B1B687A4A23F480331360784B02
:1018FC001B68774A23F4802313601DE07B685B68C8
:10190C00B3F5A02F0CD1724B1B68714A43F48023A2
:10191C0013606F4B1B686E4A43F4803313600BE00B
:10192C006B4B1B686A4A23F480331360684B1B684B
:10193C00674A23F4802313607B685B68002B13D009
:10194C00FFF7B6FC386108E0FFF7B2FC02463B69D2
:10195C00D31A642B01D90323FAE15D4B1B6803F402
:10196C000033002BF0D014E0FFF7A2FC386108E044
:10197C00FFF79EFC02463B69D31A642B01D9032363
:10198C00E6E1534B1B6803F40033002BF0D100E06D
:10199C0000BF7B681B6803F00203002B63D04C4B29
:1019AC005B6803F00C03002B0BD0494B5B6803F016
:1019BC000C03082B1CD1464B5B6803F48033002BC3
:1019CC0016D1434B1B6803F00203002B05D07B6838
:1019DC001B69012B01D00123BAE13D4B1B6823F09D
:1019EC00F8027B685B69DB00394913430B603AE012
:1019FC007B681B69002B20D0364B01221A60FFF745
:101A0C0057FC386108E0FFF753FC02463B69D31AD8
:101A1C00022B01D903239BE12D4B1B6803F002031E
:101A2C00002BF0D02A4B1B6823F0F8027B685B6913
:101A3C00DB00274913430B6015E0264B00221A608C
:101A4C00FFF736FC386108E0FFF732FC02463B69D1
:101A5C00D31A022B01D903237AE11D4B1B6803F027
:101A6C000203002BF0D17B681B6803F00803002BEA
:101A7C003AD07B689B69002B19D0174B01221A6056
:101A8C00FFF716FC386108E0FFF712FC02463B69D1
:101A9C00D31A022B01D903235AE10D4B5B6A03F0D5
:101AAC000203002BF0D0012000F0A6FA1CE00A4B38
:101ABC0000221A60FFF7FCFB38610FE0FFF7F8FB20
:101ACC0002463B69D31A022B08D9032340E100BF1D
:101ADC000010024000004242800442429E4B5B6A6E
:101AEC0003F00203002BE9D17B681B6803F00403AD
:101AFC00002B00F0A6800023FB75974BDB6903F0ED
:101B0C008053002B0DD1944BDB69934A43F08053E7
:101B1C00D361914BDB6903F08053BB60BB6801233D
:101B2C00FB758E4B1B6803F48073002B18D18B4B09
:101B3C001B688A4A43F480731360FFF7B9FB386162
:101B4C0008E0FFF7B5FB02463B69D31A642B01D9B9
:101B5C000323FDE0814B1B6803F48073002BF0D052
:101B6C007B68DB68012B06D17B4B1B6A7A4A43F0FE
:101B7C00010313622DE07B68DB68002B0CD1764BE4
:101B8C001B6A754A23F001031362734B1B6A724A7A
:101B9C0023F0040313621CE07B68DB68052B0CD17B
:101BAC006D4B1B6A6C4A43F0040313626A4B1B6A4D
:101BBC00694A43F0010313620BE0674B1B6A664AE8
:101BCC0023F001031362644B1B6A634A23F0040382
:101BDC0013627B68DB68002B15D0FFF769FB38615B
:101BEC000AE0FFF765FB02463B69D31A41F28832E3
:101BFC00934201D90323ABE0574B1B6A03F002035A
:101C0C00002BEED014E0FFF753FB38610AE0FFF72E
:101C1C004FFB02463B69D31A41F28832934201D9F9
:101C2C00032395E04C4B1B6A03F00203002BEED10F
:101C3C00FB7D012B05D1484BDB69474A23F08053D0
:101C4C00D3617B68DB69002B00F08180424B5B68C1
:101C5C0003F00C03082B61D07B68DB69022B46D1A7
:101C6C003F4B00221A60FFF723FB386108E0FFF7B7
:101C7C001FFB02463B69D31A022B01D9032367E0F1
:101C8C00354B1B6803F00073002BF0D17B681B6A8B
:101C9C00B3F5803F08D1304B5B6823F400327B688E
:101CAC009B682D4913434B602B4B5B6823F47412D8
:101CBC007B68196A7B685B6A0B43274913434B604B
:101CCC00274B01221A60FFF7F3FA386108E0FFF79F
:101CDC00EFFA02463B69D31A022B01D9032337E0F2
:101CEC001D4B1B6803F00073002BF0D02FE01C4B36
:101CFC0000221A60FFF7DCFA386108E0FFF7D8FA27
:101D0C0002463B69D31A022B01D9032320E0124B64
:101D1C001B6803F00073002BF0D118E07B68DB69C3
:101D2C00012B01D1012313E00B4B5B68FB60FB68BB
:101D3C0003F480327B681B6A9A4206D1FB6803F479
:101D4C0070127B685B6A9A4201D0012300E0002389
:101D5C0018461837BD4680BD001002400070004088
:101D6C006000424280B584B000AF786039607B6817
:101D7C00002B01D10123D0E06A4B1B6803F0070351
:101D8C003A689A4210D9674B1B6823F007026549E1
:101D9C003B6813430B60634B1B6803F007033A6803
:101DAC009A4201D00123B8E07B681B6803F0020360
:101DBC00002B20D07B681B6803F00403002B05D09C
:101DCC00594B5B68584A43F4E06353607B681B686B
:101DDC0003F00803002B05D0534B5B68524A43F4C5
:101DEC0060535360504B5B6823F0F0027B689B6838
:101DFC004D4913434B607B681B6803F00103002BB8
:101E0C0040D07B685B68012B07D1474B1B6803F400
:101E1C000033002B15D101237FE07B685B68022B1C
:101E2C0007D1414B1B6803F00073002B09D1012330
:101E3C0073E03D4B1B6803F00203002B01D101231F
:101E4C006BE0394B5B6823F003027B685B683649B7
:101E5C0013434B60FFF72CFAF8600AE0FFF728FAFF
:101E6C000246FB68D31A41F28832934201D903230C
:101E7C0053E02D4B5B6803F00C027B685B689B00A6
:101E8C009A42EBD1274B1B6803F007033A689A423E
:101E9C0010D2244B1B6823F0070222493B681343E2
:101EAC000B60204B1B6803F007033A689A4201D081
:101EBC00012332E07B681B6803F00403002B08D07D
:101ECC00194B5B6823F4E0627B68DB6816491343AB
:101EDC004B607B681B6803F00803002B09D0124B86
:101EEC005B6823F460527B681B69DB000E4913436B
:101EFC004B6000F021F802460B4B5B681B0903F0AA
:101F0C000F030A49CB5C22FA03F3094A1360094B0D
:101F1C001B681846FFF78AF9002318461037BD4690
:101F2C0080BD00BF0020024000100240882800083D
:101F3C00340000204C00002090B48AB000AF2A4B33
:101F4C003C1D0FCB84E80F0040F201233B800023A3
:101F5C00FB610023BB6100237B6200237B610023B8
:101F6C003B62224B5B68FB61FB6903F00C03042BA7
:101F7C0002D0082B03D02DE01D4B3B622DE0FB69FA
:101F8C009B0C03F00F0307F12802134413F8243CB5
:101F9C007B61FB6903F48033002B13D0134B5B681C
:101FAC005B0C03F0010307F12802134413F8283CDF
:101FBC00BB617B690E4A02FB03F2BB69B2FBF3F314
:101FCC007B6204E07B690B4A02FB03F37B627B6A56
:101FDC003B6202E0064B3B6200BF3B6A1846283767
:101FEC00BD4690BC704700BF782800080010024026
:101FFC0000127A0000093D0080B485B000AF786013
:10200C000A4B1B680A4AA2FB03235B0A7A6802FB91
:10201C0003F3FB6000BFFB685A1EFA60002BF9D17A
:10202C0000BF00BF1437BD4680BC70473400002091
:10203C00D34D621080B582B000AF78607B68002B06
:10204C0001D1012341E07B6893F83D30DBB2002BDA
:10205C0006D17B68002283F83C207868FEF788FE66
:10206C007B68022283F83D207B681A687B68043306
:10207C001946104600F06AFA7B68012283F8462064
:10208C007B68012283F83E207B68012283F83F2085
:10209C007B68012283F840207B68012283F8412071
:1020AC007B68012283F842207B68012283F843205D
:1020BC007B68012283F844207B68012283F8452049
:1020CC007B68012283F83D20002318460837BD4663
:1020DC0080BD000080B485B000AF78607B6893F859
:1020EC003D30DBB2012B01D0012335E07B680222AD
:1020FC0083F83D207B681B68DA687B681B6842F0BC
:10210C000102DA607B681B68164A934209D07B682F
:10211C001B68B3F1804F04D07B681B68124A934252
:10212C0011D17B681B689B6803F00703FB60FB689D
:10213C00062B10D07B681B681A687B681B6842F002
:10214C0001021A6007E07B681B681A687B681B68D1
:10215C0042F001021A60002318461437BD4680BCB9
:10216C00704700BF002C01400004004080B582B0D5
:10217C0000AF78607B681B681B6903F00203022BBD
:10218C0022D17B681B68DB6803F00203022B1BD196
:10219C007B681B686FF002021A617B6801221A7758
:1021AC007B681B689B6903F00303002B03D07868E2
:1021BC0000F0B1F905E0786800F0A4F9786800F057
:1021CC00B3F97B6800221A777B681B681B6903F0E4
:1021DC000403042B22D17B681B68DB6803F0040327
:1021EC00042B1BD17B681B686FF004021A617B689F
:1021FC0002221A777B681B689B6903F44073002BDF
:10220C0003D0786800F087F905E0786800F07AF977
:10221C00786800F089F97B6800221A777B681B6864
:10222C001B6903F00803082B22D17B681B68DB6851
:10223C0003F00803082B1BD17B681B686FF00802A6
:10224C001A617B6804221A777B681B68DB6903F0D0
:10225C000303002B03D0786800F05DF905E0786883
:10226C0000F050F9786800F05FF97B6800221A776B
:10227C007B681B681B6903F01003102B22D17B6851
:10228C001B68DB6803F01003102B1BD17B681B68E9
:10229C006FF010021A617B6808221A777B681B6842
:1022AC00DB6903F44073002B03D0786800F033F93A
:1022BC0005E0786800F026F9786800F035F97B685D
:1022CC0000221A777B681B681B6903F00103012B42
:1022DC000ED17B681B68DB6803F00103012B07D16F
:1022EC007B681B686FF001021A617868FEF7FCFCD2
:1022FC007B681B681B6903F08003802B0ED17B6805
:10230C001B68DB6803F08003802B07D17B681B689C
:10231C006FF080021A61786800F067FA7B681B68BE
:10232C001B6903F04003402B0ED17B681B68DB68F4
:10233C0003F04003402B07D17B681B686FF0400211
:10234C001A61786800F0F9F87B681B681B6903F068
:10235C002003202B0ED17B681B68DB6803F0200365
:10236C00202B07D17B681B686FF020021A617868FC
:10237C0000F032FA00BF0837BD4680BD80B584B08E
:10238C0000AF786039607B6893F83C30012B01D149
:10239C000223B3E07B68012283F83C207B68022295
:1023AC0083F83D207B681B689B68FB60FB6823F00F
:1023BC007703FB60FB6823F47F43FB607B681B683F
:1023CC00FA689A603B681B68B3F5005F3ED0B3F5C2
:1023DC00005F00F28780B3F5805F00F08580B3F575
:1023EC00805F7FD8702B1AD0702B7BD8602B50D08D
:1023FC00602B77D8502B3CD0502B73D8402B58D017
:10240C00402B6FD8302B64D0302B6BD8202B60D066
:10241C00202B67D8002B5CD0102B5AD062E07B6845
:10242C0018683B6899683B685A683B68DB6800F041
:10243C005CF97B681B689B68FB60FB6843F0770367
:10244C00FB607B681B68FA689A604EE07B681868D2
:10245C003B6899683B685A683B68DB6800F045F953
:10246C007B681B689A687B681B6842F480429A60A0
:10247C003BE07B6818683B6859683B68DB681A4628
:10248C0000F0BCF87B681B685021184600F013F96B
:10249C002BE07B6818683B6859683B68DB681A4618
:1024AC0000F0DAF87B681B686021184600F003F92D
:1024BC001BE07B6818683B6859683B68DB681A4608
:1024CC0000F09CF87B681B684021184600F0F3F87C
:1024DC000BE07B681A683B681B681946104600F0D5
:1024EC00EAF802E000BF00E000BF7B68012283F83D
:1024FC003D207B68002283F83C20002318461037CF
:10250C00BD4680BD80B483B000AF786000BF0C378F
:10251C00BD4680BC704780B483B000AF786000BF0C
:10252C000C37BD4680BC704780B483B000AF786078
:10253C0000BF0C37BD4680BC704780B483B000AF81
:10254C00786000BF0C37BD4680BC704780B485B046
:10255C0000AF786039607B681B68FB607B68254A3C
:10256C00934207D07B68B3F1804F03D07B68224A3B
:10257C00934208D1FB6823F07003FB603B685B68F7
:10258C00FA681343FB607B681A4A934207D07B6856
:10259C00B3F1804F03D07B68174A934208D1FB6894
:1025AC0023F44073FB603B68DB68FA681343FB6001
:1025BC00FB6823F080023B685B691343FB607B681C
:1025CC00FA681A603B689A687B68DA623B681A683A
:1025DC007B689A627B68074A934203D13B681A690D
:1025EC007B681A637B6801225A6100BF1437BD46B1
:1025FC0080BC7047002C01400004004080B487B0C0
:10260C0000AFF860B9607A60FB681B6A7B61FB689D
:10261C001B6A23F00102FB681A62FB689B693B6131
:10262C003B6923F0F0033B617B681B013A69134360
:10263C003B617B6923F00A037B617A69BB681343B6
:10264C007B61FB683A699A61FB687A691A6200BF20
:10265C001C37BD4680BC704780B487B000AFF860B3
:10266C00B9607A60FB681B6A23F01002FB681A627F
:10267C00FB689B697B61FB681B6A3B617B6923F48C
:10268C0070437B617B681B037A6913437B613B69F5
:10269C0023F0A0033B61BB681B013A6913433B6108
:1026AC00FB687A699A61FB683A691A6200BF1C3749
:1026BC00BD4680BC704780B485B000AF786039608F
:1026CC007B689B68FB60FB6823F07003FB603A68D7
:1026DC00FB68134343F00703FB607B68FA689A605E
:1026EC0000BF1437BD4680BC704780B487B000AFC4
:1026FC00F860B9607A603B60FB689B687B617B69C2
:10270C0023F47F437B613B681A027B681A43BB68E6
:10271C0013437A6913437B61FB687A699A6000BF43
:10272C001C37BD4680BC704780B485B000AF786064
:10273C0039607B6893F83C30012B01D1022341E0D6
:10274C007B68012283F83C207B68022283F83D20C1
:10275C007B681B685B68FB607B681B689B68BB6065
:10276C00FB6823F07003FB603B681B68FA6813433B
:10277C00FB607B681B68FA685A607B681B68144AAC
:10278C00934209D07B681B68B3F1804F04D07B68FF
:10279C001B68104A93420CD1BB6823F08003BB60CA
:1027AC003B685B68BA681343BB607B681B68BA689C
:1027BC009A607B68012283F83D207B68002283F8B5
:1027CC003C20002318461437BD4680BC704700BF20
:1027DC00002C01400004004080B483B000AF78604E
:1027EC0000BF0C37BD4680BC704780B483B000AFCF
:1027FC00786000BF0C37BD4680BC704770B50026B2
:10280C000C4D0D4C641BA410A64209D100F022F80B
:10281C0000260A4D0A4C641BA410A64205D170BDBB
:10282C0055F8043B98470136EEE755F8043B9847BA
:10283C000136F2E798280008982800089828000824
:10284C009C28000803460244934200D1704703F8C9
:10285C00011BF9E7F8B500BFF8BC08BC9E467047F1
:0C286C00F8B500BFF8BC08BC9E467047E1
:1028780002030405060708090A0B0C0D0E0F1010B9
:102888000000000000000000010203040607080918
:042898003101000802
:04289C000D01000822
:1028A000010000000100000001000000881300008A
:1028B000D0070000B80B00000C0000000C00000066
:1028C00010000000010000000200000003000000F2
:1028D000040000000024F400E8030000E803000006
:1028E000E8030000E8030000E80300001000000017
:0428F00001000000E3
:04000005080011C11D
:00000001FF
