:020000040800F2
:1000000000280020011800085D1100086311000895
:10001000691100086F110008751100080000000048
:100020000000000000000000000000007B1100083C
:100030008711000800000000931100089F110008BC
:10004000491800084918000849180008491800080C
:1000500049180008491800084918000849180008FC
:1000600049180008491800084918000849180008EC
:1000700049180008491800084918000849180008DC
:1000800049180008491800084918000849180008CC
:1000900049180008491800084918000849180008BC
:1000A00049180008491800084918000849180008AC
:1000B000AD110008491800080000000049180008A8
:1000C000491800080000000000000000491800085E
:1000D000000000004918000849180008000000004E
:1000E00049180008491800084918000800000000D5
:1000F0000000000000000000000000000000000000
:0C01000000000000000000005FF808F1A3
:10010C0010B5054C237833B9044B13B10448AFF345
:10011C0000800123237010BD80000020000000002F
:10012C00A02E000808B5034B1BB103490348AFF3DD
:10013C00008008BD0000000084000020A02E0008F4
:10014C0080B400AF064B1B68002B04D0044B00227C
:10015C001A60012300E000231846BD4680BC70479E
:10016C009C00002080B400AF034B01221A6000BF3A
:10017C00BD4680BC704700BF9C00002080B500AF1E
:10018C001F4B1B681F4A13601F4B1B681C4A1360D4
:10019C0001211E4801F03EFE03461A461A4B1A6016
:1001AC001B4B1B680F2B1AD0102B21D1154B1A6827
:1001BC00134B1B689A421DD1114B1A68124B1B68CA
:1001CC009A4217D1104B1B68002B13D1FFF7CAFFB3
:1001DC00C82000F0F5FF0E4B0F221A600AE001F068
:1001EC0005F80346002B07D0094B10221A6003E0D8
:1001FC0000BF02E000BF00E000BF00BF80BD00BF39
:10020C00040000200000002008000020000C014029
:10021C003C00002080B400AF064B1B68002B04D0C0
:10022C00044B00221A60012300E000231846BD464F
:10023C0080BC7047A000002080B400AF034B0122AB
:10024C001A6000BFBD4680BC704700BFA0000020F4
:10025C0080B500AF2B4B1B682B4A13602B4B1B68D4
:10026C00284A136002212A4801F0D4FD03461A469D
:10027C00264B1A60274B1B68112B33D0112B3ADC01
:10028C000F2B1BD0102B36D11F4B1A681D4B1B6824
:10029C009A4232D11B4B1A681C4B1B689A422CD1C8
:1002AC001A4B1B68002B28D1FFF7C6FF4FF47A704E
:1002BC0001F06EF8174B0F221A601EE0134B1B68EF
:1002CC00002B07D101F07AF80346002B02D0114B1A
:1002DC0011221A600D4B1B68012B10D10D4B1022F3
:1002EC001A600CE0FFF7A8FF084B1B68012B02D12A
:1002FC00084B10221A6000BF02E000BF00E000BFF4
:10030C0000BF80BD100000200C0000201400002055
:10031C00000C01404000002080B400AF064B1B686D
:10032C00002B04D0044B00221A60012300E00023B0
:10033C001846BD4680BC7047A400002080B400AFB6
:10034C00034B01221A6000BFBD4680BC704700BF42
:10035C00A400002080B500AF1F4B1B681F4A136020
:10036C001F4B1B681C4A136004211E4801F052FDF0
:10037C0003461A461A4B1A601B4B1B680F2B1AD0DC
:10038C00102B21D1154B1A68134B1B689A421DD1A7
:10039C00114B1A68124B1B689A4217D1104B1B68F1
:1003AC00002B13D1FFF7CAFFC82001F019F80E4B30
:1003BC000F221A600AE001F029F80346002B07D03F
:1003CC00094B10221A6003E000BF02E000BF00E0FE
:1003DC0000BF00BF80BD00BF1C0000201800002023
:1003EC0020000020000C01404400002080B582B0A9
:1003FC0000AF78607B68032B5ED801A252F823F023
:10040C001D04000847040008710400089B04000840
:10041C0000220821354801F014FD01221021334837
:10042C0001F00FFD01222021304801F00AFD0122CC
:10043C0040212E4801F005FD53E0012208212B48F4
:10044C0001F0FFFC00221021284801F0FAFC0122E7
:10045C002021264801F0F5FC01224021234801F01F
:10046C00F0FC3EE001220821204801F0EAFC0122C8
:10047C0010211E4801F0E5FC002220211B4801F050
:10048C00E0FC01224021194801F0DBFC29E00122AB
:10049C000821164801F0D5FC01221021134801F067
:1004AC00D0FC01222021114801F0CBFC002240217C
:1004BC000E4801F0C6FC14E0012208210B4801F0A3
:1004CC00C0FC01221021094801F0BBFC01222021B3
:1004DC00064801F0B6FC01224021044801F0B1FCB1
:1004EC0000BF00BF0837BD4680BD00BF000C0140F7
:1004FC0080B582B000AF78607B68092B00F2B281C6
:10050C0001A252F823F000BF3D0500088F0500083A
:10051C00E10500083306000885060008D706000828
:10052C00290700087B070008CD0700081F080008F2
:10053C0000224021CE4801F084FC00228021CC48CE
:10054C0001F07FFC00224FF48071C94801F079FC66
:10055C0000224FF40071C64801F073FC00224FF4E6
:10056C008061C34801F06DFC00224FF40061C0486B
:10057C0001F067FC01224FF48051BD4801F061FC91
:10058C0071E101224021BA4801F05BFC002280217C
:10059C00B74801F056FC00224FF48071B44801F0CA
:1005AC0050FC01224FF40071B14801F04AFC0122C9
:1005BC004FF48061AE4801F044FC01224FF400611D
:1005CC00AB4801F03EFC01224FF48051A84801F0E9
:1005DC0038FC48E100224021A54801F032FC002201
:1005EC008021A34801F02DFC01224FF48071A0481A
:1005FC0001F027FC00224FF400719D4801F021FC12
:10060C0000224FF480619A4801F01BFC01224FF448
:10061C000061974801F015FC00224FF4805194487A
:10062C0001F00FFC1FE100224021914801F009FC70
:10063C00002280218E4801F004FC00224FF48071CE
:10064C008B4801F0FEFB00224FF40071884801F04A
:10065C00F8FB01224FF48061854801F0F2FB012286
:10066C004FF40061824801F0ECFB00224FF4805102
:10067C007F4801F0E6FBF6E0012240217C4801F0C6
:10068C00E0FB002280217A4801F0DBFB00224FF4D2
:10069C008071774801F0D5FB01224FF4007174484A
:1006AC0001F0CFFB01224FF48061714801F0C9FBCE
:1006BC0000224FF400616E4801F0C3FB00224FF49E
:1006CC0080516B4801F0BDFBCDE000224021684811
:1006DC0001F0B7FB01228021654801F0B2FB00223A
:1006EC004FF48071624801F0ACFB00224FF40071B2
:1006FC005F4801F0A6FB01224FF480615C4801F0D9
:10070C00A0FB00224FF40061594801F09AFB002233
:10071C004FF48051564801F094FBA4E00022402194
:10072C00534801F08EFB01228021514801F089FBD6
:10073C0000224FF480714E4801F083FB00224FF4ED
:10074C0000714B4801F07DFB00224FF4806148485A
:10075C0001F077FB00224FF40061454801F071FB7A
:10076C0000224FF48051424801F06BFB7BE00022E9
:10077C0040213F4801F065FB002280213C4801F0FC
:10078C0060FB00224FF48071394801F05AFB0122C2
:10079C004FF40071364801F054FB01224FF4806194
:1007AC00334801F04EFB01224FF40061304801F058
:1007BC0048FB01224FF480512D4801F042FB52E0DE
:1007CC00002240212A4801F03CFB002280212848CD
:1007DC0001F037FB00224FF48071254801F031FB0A
:1007EC0000224FF40071224801F02BFB00224FF441
:1007FC0080611F4801F025FB00224FF400611C486A
:10080C0001F01FFB00224FF48051194801F019FB35
:10081C0029E000224021164801F013FB0022802120
:10082C00134801F00EFB00224FF48071104801F0C8
:10083C0008FB00224FF400710D4801F002FB01226D
:10084C004FF480610A4801F0FCFA00224FF4006179
:10085C00074801F0F6FA00224FF48051044801F0E9
:10086C00F0FA00E000BF00BF0837BD4680BD00BFF6
:10087C000008014080B483B000AF786039607B68B9
:10088C00002B09DB7B68092B06DC294B00221A6044
:10089C00274A7B6853601CE07B68092B19DD7B6859
:1008AC00632B16DC7B68234A82FB03129210DB1746
:1008BC00D31A1F4A136079681E4B83FB01239A10CD
:1008CC00CB17D21A13469B0013445B00CA1A184B61
:1008DC005A603B68002B09DB3B68092B06DC144B88
:1008EC0000229A60124A3B68D3601CE03B68092BDB
:1008FC0019DD3B68632B16DC3B680E4A82FB031246
:10090C009210DB17D31A0A4A93603968094B83FBA0
:10091C0001239A10CB17D21A13469B0013445B0089
:10092C00CA1A034BDA6000BF0C37BD4680BC704757
:10093C00480000206766666680B500AF114B1B68E7
:10094C001846FFF753FD0F4B1B680F4A52F8233024
:10095C001846FFF7CDFD00F071FC0346002B0ED0BE
:10096C00C82000F055FC074B1B6801335A4203F0BA
:10097C00030302F0030258BF5342024A136000BF44
:10098C0080BD00BFAC0000204800002080B500AF47
:10099C00284B1B680B3B032B49D801A252F823F0C0
:1009AC00BD090008DB090008FB0900081B0A000848
:1009BC0001220121204801F044FA012202211E48A3
:1009CC0001F03FFA012204211B4801F03AFA0022FF
:1009DC000121194801F035FA01220221164801F0D3
:1009EC0030FA01220421144801F02BFA20E00122F4
:1009FC000121114801F025FA002202210E4801F0D4
:100A0C0020FA012204210C4801F01BFA10E001220B
:100A1C000121094801F015FA01220221064801F0D2
:100A2C0010FA00220421044801F00BFA00E000BF88
:100A3C0000BF80BD340000200008014080B500AF2D
:100A4C00284B1B680B3B032B49D801A252F823F00F
:100A5C006D0A00088B0A0008AB0A0008CB0A0008D4
:100A6C0001220821204801F0ECF9012210211E4836
:100A7C0001F0E7F9012220211B4801F0E2F90022E4
:100A8C000821194801F0DDF901221021164801F066
:100A9C00D8F901222021144801F0D3F920E00122D9
:100AAC000821114801F0CDF9002210210E4801F067
:100ABC00C8F9012220210C4801F0C3F910E00122F1
:100ACC000821094801F0BDF901221021064801F066
:100ADC00B8F900222021044801F0B3F900E000BF6E
:100AEC0000BF80BD380000200008014080B500AF79
:100AFC00324B1B680E2B40D00E2B5BDC0C2B02D028
:100B0C000D2B1DD056E001212D4801F0B2F9012228
:100B1C0002212B4801F095F901220421284801F00B
:100B2C0090F90821264801F0A4F90122102124484B
:100B3C0001F087F901222021214801F082F93AE0E5
:100B4C00012201211E4801F07CF902211C4801F010
:100B5C0090F9012204211A4801F073F901220821AD
:100B6C00174801F06EF91021154801F082F90122A5
:100B7C002021134801F065F91DE0012201211048E4
:100B8C0001F05FF9012202210D4801F05AF904210C
:100B9C000B4801F06EF901220821094801F051F9C6
:100BAC0001221021064801F04CF92021044801F0E3
:100BBC0060F900E000BF00BF80BD00BF3400002022
:100BCC000008014080B500AFFFF7E0FE214B1B6829
:100BDC000E2B26D00E2B34DC0C2B02D00D2B10D070
:100BEC002FE000F063FB0346002B2CD0194B0E2298
:100BFC001A60194B1B68184600F032FBFFF7C6FE53
:100C0C0021E000F053FB0346002B1ED0114B0C22AD
:100C1C001A60124B1B68184600F022FBFFF7B6FE59
:100C2C0013E000F043FB0346002B10D0094B0D22C0
:100C3C001A600B4B1B68184600F012FBFFF7A6FE60
:100C4C0005E000BF04E000BF02E000BF00E000BF11
:100C5C0000BF80BD340000202C00002024000020A8
:100C6C002800002080B500AFFFF7E8FE214B1B6881
:100C7C000E2B26D00E2B34DC0C2B02D00D2B10D0CF
:100C8C002FE000F04BFB0346002B2CD0194B0E220F
:100C9C001A60194B1B68184600F01AFBFFF7CEFEC2
:100CAC0021E000F03BFB0346002B1ED0114B0C2225
:100CBC001A60124B1B68184600F00AFBFFF7BEFEC9
:100CCC0013E000F02BFB0346002B10D0094B0D2238
:100CDC001A600B4B1B68184600F0FAFAFFF7AEFED1
:100CEC0005E000BF04E000BF02E000BF00E000BF71
:100CFC0000BF80BD380000202C0000202400002004
:100D0C002800002080B500AF00F030FB0346002B1C
:100D1C0005D0FFF7EBFE4FF4FA7000F011FB00BFAB
:100D2C0080BD000080B500AF4A4B1B68042B5DD022
:100D3C00042B00F38680022B02D0032B2BD080E0F7
:100D4C00FFF768FA0346002B1BD0434B1B6803F5D7
:100D5C007A72424B83FB02135913D317CB1A4049B7
:100D6C0001FB03F3D31A3C4A13603B4B1B683D4A0F
:100D7C0082FB03129211DB17D31A19460220FFF7DC
:100D8C0079FDFFF7C9FA0346002B5CD0324B1B6888
:100D9C00354A136057E0FFF73DFA0346002B1BD092
:100DAC002D4B1B6803F57A722C4B83FB02135913E2
:100DBC00D317CB1A2A4901FB03F3D31A264A136023
:100DCC00254B1B68274A82FB03129211DB17D31A9F
:100DDC0019460220FFF74EFDFFF79EFA0346002B43
:100DEC0033D01D4B1B68214A13602EE01A4B1B6835
:100DFC001C4A82FB03129211DB17D31A19460420EA
:100E0C00FFF738FDFFF706FA0346002B0FD0124B05
:100E1C001B6803F57A72114B83FB02135913D3171A
:100E2C00CB1A0F4901FB03F3D31A0B4A1360FFF7DC
:100E3C0073FA0346002B0AD0074B1B680C4A13604D
:100E4C0005E000BF04E000BF02E000BF00E000BF0F
:100E5C0000BF80BDA80000203000002089B5F81428
:100E6C00A0860100D34D6210240000202800002031
:100E7C002C00002080B500AF00F0E2FC00F014F86C
:100E8C0000F09AF800F04CF8054801F043FC054BD3
:100E9C0000221A6000F05EFBFFF74EFDFAE700BF80
:100EAC00CC000020A800002080B590B000AF07F166
:100EBC00180328220021184601F0E4FF3B1D0022F4
:100ECC001A605A609A60DA601A610223BB610123CE
:100EDC00BB621023FB6200237B6307F118031846E7
:100EEC0000F0E0FF0346002B01D000F0D5F80F23F3
:100EFC007B600023BB600023FB6000233B6100236D
:100F0C007B613B1D0021184601F04CFA0346002B77
:100F1C0001D000F0C1F800BF4037BD4680BD0000D5
:100F2C0080B586B000AF07F1080300221A605A6042
:100F3C009A60DA603B4600221A605A601D4B4FF0F3
:100F4C0080421A601B4B41F63F725A60194B0022CB
:100F5C009A60184B0A22DA60164B00221A61154B64
:100F6C0000229A61134801F085FB0346002B01D047
:100F7C0000F092F84FF48053BB6007F10803194658
:100F8C000C4801F01BFD0346002B01D000F084F847
:100F9C0000233B6000237B603B461946054801F06B
:100FAC00E3FE0346002B01D000F076F800BF1837A3
:100FBC00BD4680BDCC00002080B586B000AF07F1E7
:100FCC00080300221A605A609A60DA60274B9B690A
:100FDC00264A43F004039361244B9B6903F00403FA
:100FEC007B607B68214B9B69204A43F0080393612B
:100FFC001E4B9B6903F008033B603B68002241F6E3
:10100C00FF711B4800F01DFF00227821194800F0E9
:10101C0018FF41F6FF73BB600123FB6000233B61AB
:10102C0002237B6107F108031946114800F078FD93
:10103C000723BB600023FB6001233B6107F108031E
:10104C0019460C4800F06CFD7823BB600123FB6053
:10105C0000233B6102237B6107F108031946054815
:10106C0000F05EFD00BF1837BD4680BD0010024089
:10107C0000080140000C014080B582B000AF7860E0
:10108C0000F0D6F9FFF77AF8FFF7E2F8FFF762F90C
:10109C0000BF0837BD4680BD80B400AF72B600BF3C
:1010AC00FEE7000080B485B000AF154B9B69144A75
:1010BC0043F001039361124B9B6903F00103BB6086
:1010CC00BB680F4BDB690E4A43F08053D3610C4B6A
:1010DC00DB6903F080537B607B680A4B5B68FB60C9
:1010EC00FB6823F0E063FB60FB6843F08063FB600C
:1010FC00044AFB68536000BF1437BD4680BC704780
:10110C00001002400000014080B584B000AF786050
:10111C007B681B68B3F1804F13D10C4BDB690B4A16
:10112C0043F00103D361094BDB6903F00103FB605E
:10113C00FB68002200211C2000F0BBFC1C2000F0EE
:10114C00D4FC00BF1037BD4680BD00BF001002406C
:10115C0080B400AFFEE780B400AFFEE780B400AF10
:10116C00FEE780B400AFFEE780B400AFFEE780B4CA
:10117C0000AF00BFBD4680BC704780B400AF00BF5D
:10118C00BD4680BC704780B400AF00BFBD4680BC7C
:10119C00704780B500AF00F099FB00BF80BD000028
:1011AC0080B500AF024801F001FB00BF80BD00BF5D
:1011BC00CC00002080B400AF00BFBD4680BC70479F
:1011CC0080B483B000AF78607B68064A82FB031260
:1011DC009210DB17D31A044A136000BF0C37BD46BC
:1011EC0080BC7047676666665C00002080B400AF08
:1011FC00064B1B68002B04D0044B00221A60012301
:10120C0000E000231846BD4680BC7047B0000020AB
:10121C0080B483B000AF78607B68064A82FB03120F
:10122C009210DB17D31A044A136000BF0C37BD466B
:10123C0080BC7047676666666000002080B400AFB3
:10124C00064B1B68002B04D0044B00221A600123B0
:10125C0000E000231846BD4680BC7047B400002057
:10126C0080B483B000AF78607B68064A82FB0312BF
:10127C009210DB17D31A044A136000BF0C37BD461B
:10128C0080BC7047676666666400002080B400AF5F
:10129C00044B00221A60044B00221A6000BFBD46AA
:1012AC0080BC704764000020B800002080B400AF00
:1012BC00064B1B68002B04D0044B00221A60012340
:1012CC0000E000231846BD4680BC7047B8000020E3
:1012DC0080B483B000AF78607B68064A82FB03124F
:1012EC009210DB17D31A044A136000BF0C37BD46AB
:1012FC0080BC7047676666666800002080B400AFEB
:10130C00044B00221A60044B00221A6000BFBD4639
:10131C0080BC704768000020BC00002080B400AF87
:10132C00064B1B68002B04D0044B00221A600123CF
:10133C0000E000231846BD4680BC7047BC0000206E
:10134C0080B483B000AF78607B68064A82FB0312DE
:10135C009210DB17D31A044A136000BF0C37BD463A
:10136C0080BC7047676666666C00002080B400AF76
:10137C00064B1B68002B04D0044B00221A6001237F
:10138C0000E000231846BD4680BC7047C00000201A
:10139C0080B483B000AF78607B68064A82FB03128E
:1013AC009210DB17D31A044A136000BF0C37BD46EA
:1013BC0080BC7047676666667000002080B400AF22
:1013CC00064B1B68002B04D0044B00221A6001232F
:1013DC0000E000231846BD4680BC7047C4000020C6
:1013EC0080B483B000AF78607B68064A82FB03123E
:1013FC009210DB17D31A044A136000BF0C37BD469A
:10140C0080BC7047676666667400002080B400AFCD
:10141C00064B1B68002B04D0044B00221A600123DE
:10142C0000E000231846BD4680BC7047C800002071
:10143C0080B400AF394B1B68002B0BDD374B1B689E
:10144C00013B364A1360354B1B68002B02DC344BD6
:10145C0001221A60334B1B68002B0BDD314B1B68D0
:10146C00013B304A13602F4B1B68002B02DC2E4BC8
:10147C0001221A602D4B1B68002B0BDD2B4B1B68BC
:10148C00013B2A4A1360294B1B68002B02DC284BBA
:10149C0001221A60274B1B68002B0BDD254B1B68A8
:1014AC00013B244A1360234B1B68002B02DC224BAC
:1014BC0001221A60214B1B68002B0BDD1F4B1B6894
:1014CC00013B1E4A13601D4B1B68002B02DC1C4B9E
:1014DC0001221A601B4B1B68002B0BDD194B1B6880
:1014EC00013B184A1360174B1B68002B02DC164B90
:1014FC0001221A60154B1B68002B0BDD134B1B686C
:10150C00013B124A1360114B1B68002B02DC104B81
:10151C0001221A6000BFBD4680BC70475C000020F1
:10152C00B000002060000020B40000206400002007
:10153C00B800002068000020BC0000206C000020D7
:10154C00C000002070000020C400002074000020A7
:10155C00C800002080B500AF984B1B68042B00F22C
:10156C00228101A252F823F08915000817160008F1
:10157C009D160008F51600084B170008904B10221A
:10158C001A60904B10221A608F4B10221A608F4BEE
:10159C0041F288321A608E4B4FF4FA621A608D4B0E
:1015AC0040F6B8321A608C4B41F288321A606420D3
:1015BC00FFF72EFE894B0C221A60894B0E221A6003
:1015CC00824B1B681846FFF74BFE824B1B68184674
:1015DC00FFF77EFEFFF7DAF9FFF730FA814B1B6855
:1015EC00814A82FB03125211DB17D01A7F4B1B6806
:1015FC007D4A82FB03125211DB17D31A1946FFF7EF
:10160C0039F96E4B01221A60D6E0FFF7DBFAFFF7CF
:10161C0029FB744B1B68744A82FB03125211DB17B3
:10162C00D01A724B1B68704A82FB03125211DB17E3
:10163C00D31A1946FFF71EF9FEF782FD0346002B5D
:10164C0000F0B380654B0C221A60654B0C221A60BB
:10165C00FFF71CFEFFF752FE4FF4FA70FFF770FE17
:10166C00FFF794F9FFF7EAF9584B1B68604A82FBC5
:10167C0003129211DB17D31A19460220FFF7FAF85E
:10168C00524B1B68544A13604C4B02221A608CE07C
:10169C00FFF738FBFFF746FBFEF752FD0346002B26
:1016AC0000F085804D4B0D221A604D4B0D221A60B7
:1016BC004FF4FA70FFF744FEFFF768F9FFF7BEF935
:1016CC00434B1B684A4A82FB03129211DB17D31A55
:1016DC0019460320FFF7CEF83D4B1B683E4A1360BA
:1016EC00364B03221A6062E0FFF70CFBFFF71AFB84
:1016FC00FEF726FD0346002B5BD0384B0E221A60FA
:10170C00374B0E221A604FF4FA70FFF719FEFFF7F1
:10171C003DF9FFF793F92F4B1B68354A82FB0312F7
:10172C009211DB17D31A19460420FFF7A3F8294BA3
:10173C001B68294A1360214B04221A6039E0FFF719
:10174C00E1FAFFF7EFFAFEF7FBFC0346002B32D071
:10175C00224B0C221A60224B0E221A601B4B1B6868
:10176C001846FFF77DFD1B4B1B681846FFF7B0FDB5
:10177C00FFF70CF9FFF762F91A4B1B681A4A82FB48
:10178C0003125211DB17D01A184B1B68164A82FB36
:10179C0003125211DB17D31A1946FFF76BF8074BDC
:1017AC0001221A6007E000BF06E000BF04E000BFA2
:1017BC0002E000BF00E000BF00BF80BDA800002019
:1017CC003C000020400000204400002024000020A9
:1017DC00280000202C0000203000002034000020C5
:1017EC0038000020640000201F85EB5168000020A9
:1017FC00D34D62100C480D490D4A002302E0D45819
:10180C00C4500433C4188C42F9D30A4A0A4C00233E
:10181C0001E013600432A242FBD3FFF7CBFC01F0D2
:10182C000DFBFFF727FB7047000000208000002015
:10183C00E02E00088000002018010020FEE70000C8
:10184C0080B500AF084B1B68074A43F010031360C8
:10185C00032000F023F90F2000F008F8FFF722FC1A
:10186C000023184680BD00BF0020024080B582B026
:10187C0000AF7860124B1A68124B1B7819464FF464
:10188C007A73B3FBF1F3B2FBF3F3184600F03BF9B8
:10189C000346002B01D001230EE07B680F2B0AD8E6
:1018AC00002279684FF0FF3000F003F9064A7B689C
:1018BC001360002300E0012318460837BD4680BDA5
:1018CC00580000207C0000207800002080B400AF7D
:1018DC00054B1B781A46054B1B681344034A1360CF
:1018EC0000BFBD4680BC70477C0000201401002066
:1018FC0080B400AF024B1B681846BD4680BC7047D5
:10190C001401002080B485B000AF78607B6803F0D0
:10191C000703FB600C4BDB68BB60BA684FF6FF0338
:10192C001340BB60FB681A02BB68134343F0BF63F0
:10193C0043F40033BB60044ABB68D36000BF143768
:10194C00BD4680BC704700BF00ED00E080B400AF26
:10195C00044BDB681B0A03F007031846BD4680BC2A
:10196C00704700BF00ED00E080B483B000AF0346C9
:10197C00FB7197F90730002B0BDBFB7903F01F028F
:10198C00064997F907305B09012000FA02F241F889
:10199C00232000BF0C37BD4680BC704700E100E03F
:1019AC0080B483B000AF03463960FB7197F9073000
:1019BC00002B0ADB3B68DAB20C4997F907301201AD
:1019CC00D2B20B4483F800230AE03B68DAB2084930
:1019DC00FB7903F00F03043B1201D2B20B441A76CD
:1019EC0000BF0C37BD4680BC704700BF00E100E073
:1019FC0000ED00E080B489B000AFF860B9607A60A7
:101A0C00FB6803F00703FB61FB69C3F10703042BBD
:101A1C0028BF0423BB61FB690433062B02D9FB6985
:101A2C00033B00E000237B614FF0FF32BB6902FAFD
:101A3C0003F3DA43BB681A407B699A404FF0FF31DD
:101A4C007B6901FA03F3D9437B680B4013431846B7
:101A5C002437BD4680BC704780B582B000AF78603B
:101A6C007B68013BB3F1807F01D301230FE00A4A6D
:101A7C007B68013B53600F214FF0FF30FFF790FF65
:101A8C00054B00229A60044B07221A60002318466B
:101A9C000837BD4680BD00BF10E000E080B582B0C5
:101AAC0000AF78607868FFF72DFF00BF0837BD46A0
:101ABC0080BD80B586B000AF0346B9607A60FB7319
:101ACC0000237B61FFF742FF78617A68B968786917
:101ADC00FFF790FF024697F90F3011461846FFF7B3
:101AEC005FFF00BF1837BD4680BD80B582B000AF28
:101AFC000346FB7197F907301846FFF735FF00BF17
:101B0C000837BD4680BD80B582B000AF786078687C
:101B1C00FFF7A2FF034618460837BD4680BD0000FC
:101B2C0080B48BB000AF7860396000237B620023F7
:101B3C003B6248E101227B6A02FA03F3FB613B68DA
:101B4C001B68FA691340BB61BA69FB699A4240F0A1
:101B5C0037813B685B68A34A93425ED0A14A9342AB
:101B6C0075D8A14A934258D09F4A93426FD89F4A46
:101B7C00934252D09D4A934269D89D4A93424CD08D
:101B8C009B4A934263D89B4A934246D0994A9342CC
:101B9C005DD8122B2AD8122B59D801A252F823F057
:101BAC00271C0008011C0008131C0008551C000809
:101BBC005B1C00085B1C00085B1C00085B1C00081D
:101BCC005B1C00085B1C00085B1C00085B1C00080D
:101BDC005B1C00085B1C00085B1C00085B1C0008FD
:101BEC005B1C0008091C00081D1C0008824A93425B
:101BFC0013D02CE03B68DB683B6229E03B68DB6878
:101C0C0004333B6224E03B68DB6808333B621FE033
:101C1C003B68DB680C333B621AE03B689B68002B2B
:101C2C0002D104233B6213E03B689B68012B05D176
:101C3C0008233B627B68FA691A6109E008233B625E
:101C4C007B68FA695A6103E000233B6200E000BF45
:101C5C00BB69FF2B01D87B6801E07B6804337B6197
:101C6C00BB69FF2B02D87B6A9B0002E07B6A083BB6
:101C7C009B003B617B691A680F213B6901FA03F3F6
:101C8C00DB431A40396A3B6901FA03F31A437B6957
:101C9C001A603B685B6803F08053002B00F0908067
:101CAC00564B9B69554A43F001039361534B9B6917
:101CBC0003F00103BB60BB68514A7B6A9B0802338B
:101CCC0052F82330FB607B6A03F003039B000F2266
:101CDC0002FA03F3DB43FA681340FB607B68494A62
:101CEC0093420DD07B68484A934207D07B68474AA1
:101CFC00934201D1022304E0032302E0012300E01C
:101D0C0000237A6A02F0030292009340FA681343AC
:101D1C00FB603B497B6A9B080233FA6841F823203D
:101D2C003B685B6803F48033002B06D0384B1A6891
:101D3C003749BB6913430B6006E0354B1A68BB6926
:101D4C00DB43334913400B603B685B6803F400339F
:101D5C00002B06D02E4B5A682D49BB6913434B60A0
:101D6C0006E02B4B5A68BB69DB43294913404B6097
:101D7C003B685B6803F48013002B06D0244B9A68F5
:101D8C002349BB6913438B6006E0214B9A68BB69FE
:101D9C00DB431F4913408B603B685B6803F4001303
:101DAC00002B06D01A4BDA681949BB691343CB6078
:101DBC0006E0174BDA68BB69DB4315491340CB606F
:101DCC007B6A01337B623B681A687B6A22FA03F3F5
:101DDC00002B7FF4AFAE00BF00BF2C37BD4680BCDC
:101DEC00704700BF000032100000311000002210BC
:101DFC000000211000001210000011100010024011
:101E0C000000014000080140000C0140001001409E
:101E1C000004014080B485B000AF78600B467B8035
:101E2C007B689A687B881340002B02D00123FB73DC
:101E3C0001E00023FB73FB7B18461437BD4680BCC6
:101E4C00704780B483B000AF78600B467B8013463C
:101E5C007B707B78002B03D07A887B681A6103E057
:101E6C007B881A047B681A6100BF0C37BD4680BCA6
:101E7C00704780B485B000AF78600B467B807B6880
:101E8C00DB68FB607A88FB6813401A04FB68D94353
:101E9C007B880B401A437B681A6100BF1437BD4620
:101EAC0080BC704780B586B000AF78607B68002B33
:101EBC0001D101236CE27B681B6803F00103002B4A
:101ECC0000F08780924B5B6803F00C03042B0CD062
:101EDC008F4B5B6803F00C03082B12D18C4B5B68A7
:101EEC0003F48033B3F5803F0BD1894B1B6803F4AB
:101EFC000033002B6CD07B685B68002B68D101230E
:101F0C0046E27B685B68B3F5803F06D1804B1B686B
:101F1C007F4A43F4803313602EE07B685B68002BB0
:101F2C000CD17B4B1B687A4A23F480331360784BBB
:101F3C001B68774A23F4802313601DE07B685B6881
:101F4C00B3F5A02F0CD1724B1B68714A43F480235C
:101F5C0013606F4B1B686E4A43F4803313600BE0C5
:101F6C006B4B1B686A4A23F480331360684B1B6805
:101F7C00674A23F4802313607B685B68002B13D0C3
:101F8C00FFF7B6FC386108E0FFF7B2FC02463B698C
:101F9C00D31A642B01D90323FAE15D4B1B6803F4BC
:101FAC000033002BF0D014E0FFF7A2FC386108E0FE
:101FBC00FFF79EFC02463B69D31A642B01D903231D
:101FCC00E6E1534B1B6803F40033002BF0D100E027
:101FDC0000BF7B681B6803F00203002B63D04C4BE3
:101FEC005B6803F00C03002B0BD0494B5B6803F0D0
:101FFC000C03082B1CD1464B5B6803F48033002B7D
:10200C0016D1434B1B6803F00203002B05D07B68F1
:10201C001B69012B01D00123BAE13D4B1B6823F056
:10202C00F8027B685B69DB00394913430B603AE0CB
:10203C007B681B69002B20D0364B01221A60FFF7FE
:10204C0057FC386108E0FFF753FC02463B69D31A92
:10205C00022B01D903239BE12D4B1B6803F00203D8
:10206C00002BF0D02A4B1B6823F0F8027B685B69CD
:10207C00DB00274913430B6015E0264B00221A6046
:10208C00FFF736FC386108E0FFF732FC02463B698B
:10209C00D31A022B01D903237AE11D4B1B6803F0E1
:1020AC000203002BF0D17B681B6803F00803002BA4
:1020BC003AD07B689B69002B19D0174B01221A6010
:1020CC00FFF716FC386108E0FFF712FC02463B698B
:1020DC00D31A022B01D903235AE10D4B5B6A03F08F
:1020EC000203002BF0D0012000F0A6FA1CE00A4BF2
:1020FC0000221A60FFF7FCFB38610FE0FFF7F8FBDA
:10210C0002463B69D31A022B08D9032340E100BFD6
:10211C000010024000004242800442429E4B5B6A27
:10212C0003F00203002BE9D17B681B6803F0040366
:10213C00002B00F0A6800023FB75974BDB6903F0A6
:10214C008053002B0DD1944BDB69934A43F08053A1
:10215C00D361914BDB6903F08053BB60BB680123F7
:10216C00FB758E4B1B6803F48073002B18D18B4BC3
:10217C001B688A4A43F480731360FFF7B9FB38611C
:10218C0008E0FFF7B5FB02463B69D31A642B01D973
:10219C000323FDE0814B1B6803F48073002BF0D00C
:1021AC007B68DB68012B06D17B4B1B6A7A4A43F0B8
:1021BC00010313622DE07B68DB68002B0CD1764B9E
:1021CC001B6A754A23F001031362734B1B6A724A34
:1021DC0023F0040313621CE07B68DB68052B0CD135
:1021EC006D4B1B6A6C4A43F0040313626A4B1B6A07
:1021FC00694A43F0010313620BE0674B1B6A664AA2
:10220C0023F001031362644B1B6A634A23F004033B
:10221C0013627B68DB68002B15D0FFF769FB386114
:10222C000AE0FFF765FB02463B69D31A41F288329C
:10223C00934201D90323ABE0574B1B6A03F0020313
:10224C00002BEED014E0FFF753FB38610AE0FFF7E8
:10225C004FFB02463B69D31A41F28832934201D9B3
:10226C00032395E04C4B1B6A03F00203002BEED1C9
:10227C00FB7D012B05D1484BDB69474A23F080538A
:10228C00D3617B68DB69002B00F08180424B5B687B
:10229C0003F00C03082B61D07B68DB69022B46D161
:1022AC003F4B00221A60FFF723FB386108E0FFF771
:1022BC001FFB02463B69D31A022B01D9032367E0AB
:1022CC00354B1B6803F00073002BF0D17B681B6A45
:1022DC00B3F5803F08D1304B5B6823F400327B6848
:1022EC009B682D4913434B602B4B5B6823F4741292
:1022FC007B68196A7B685B6A0B43274913434B6005
:10230C00274B01221A60FFF7F3FA386108E0FFF758
:10231C00EFFA02463B69D31A022B01D9032337E0AB
:10232C001D4B1B6803F00073002BF0D02FE01C4BEF
:10233C0000221A60FFF7DCFA386108E0FFF7D8FAE0
:10234C0002463B69D31A022B01D9032320E0124B1E
:10235C001B6803F00073002BF0D118E07B68DB697D
:10236C00012B01D1012313E00B4B5B68FB60FB6875
:10237C0003F480327B681B6A9A4206D1FB6803F433
:10238C0070127B685B6A9A4201D0012300E0002343
:10239C0018461837BD4680BD001002400070004042
:1023AC006000424280B584B000AF786039607B68D1
:1023BC00002B01D10123D0E06A4B1B6803F007030B
:1023CC003A689A4210D9674B1B6823F0070265499B
:1023DC003B6813430B60634B1B6803F007033A68BD
:1023EC009A4201D00123B8E07B681B6803F002031A
:1023FC00002B20D07B681B6803F00403002B05D056
:10240C00594B5B68584A43F4E06353607B681B6824
:10241C0003F00803002B05D0534B5B68524A43F47E
:10242C0060535360504B5B6823F0F0027B689B68F1
:10243C004D4913434B607B681B6803F00103002B71
:10244C0040D07B685B68012B07D1474B1B6803F4BA
:10245C000033002B15D101237FE07B685B68022BD6
:10246C0007D1414B1B6803F00073002B09D10123EA
:10247C0073E03D4B1B6803F00203002B01D10123D9
:10248C006BE0394B5B6823F003027B685B68364971
:10249C0013434B60FFF72CFAF8600AE0FFF728FAB9
:1024AC000246FB68D31A41F28832934201D90323C6
:1024BC0053E02D4B5B6803F00C027B685B689B0060
:1024CC009A42EBD1274B1B6803F007033A689A42F8
:1024DC0010D2244B1B6823F0070222493B6813439C
:1024EC000B60204B1B6803F007033A689A4201D03B
:1024FC00012332E07B681B6803F00403002B08D037
:10250C00194B5B6823F4E0627B68DB681649134364
:10251C004B607B681B6803F00803002B09D0124B3F
:10252C005B6823F460527B681B69DB000E49134324
:10253C004B6000F021F802460B4B5B681B0903F063
:10254C000F030A49CB5C22FA03F3094A1360094BC7
:10255C001B681846FFF78AF9002318461037BD464A
:10256C0080BD00BF0020024000100240C82E0008B1
:10257C00580000207800002090B48AB000AF2A4B9D
:10258C003C1D0FCB84E80F0040F201233B8000235D
:10259C00FB610023BB6100237B6200237B61002372
:1025AC003B62224B5B68FB61FB6903F00C03042B61
:1025BC0002D0082B03D02DE01D4B3B622DE0FB69B4
:1025CC009B0C03F00F0307F12802134413F8243C6F
:1025DC007B61FB6903F48033002B13D0134B5B68D6
:1025EC005B0C03F0010307F12802134413F8283C99
:1025FC00BB617B690E4A02FB03F2BB69B2FBF3F3CE
:10260C007B6204E07B690B4A02FB03F37B627B6A0F
:10261C003B6202E0064B3B6200BF3B6A1846283720
:10262C00BD4690BC704700BFB82E00080010024099
:10263C0000127A0000093D0080B485B000AF7860CC
:10264C000A4B1B680A4AA2FB03235B0A7A6802FB4B
:10265C0003F3FB6000BFFB685A1EFA60002BF9D134
:10266C0000BF00BF1437BD4680BC70475800002027
:10267C00D34D621080B582B000AF78607B68002BC0
:10268C0001D1012341E07B6893F83D30DBB2002B94
:10269C0006D17B68002283F83C207868FEF734FD75
:1026AC007B68022283F83D207B681A687B680433C0
:1026BC001946104600F06AFA7B68012283F846201E
:1026CC007B68012283F83E207B68012283F83F203F
:1026DC007B68012283F840207B68012283F841202B
:1026EC007B68012283F842207B68012283F8432017
:1026FC007B68012283F844207B68012283F8452003
:10270C007B68012283F83D20002318460837BD461C
:10271C0080BD000080B485B000AF78607B6893F812
:10272C003D30DBB2012B01D0012335E07B68022266
:10273C0083F83D207B681B68DA687B681B6842F075
:10274C000102DA607B681B68164A934209D07B68E9
:10275C001B68B3F1804F04D07B681B68124A93420C
:10276C0011D17B681B689B6803F00703FB60FB6857
:10277C00062B10D07B681B681A687B681B6842F0BC
:10278C0001021A6007E07B681B681A687B681B688B
:10279C0042F001021A60002318461437BD4680BC73
:1027AC00704700BF002C01400004004080B582B08F
:1027BC0000AF78607B681B681B6903F00203022B77
:1027CC0022D17B681B68DB6803F00203022B1BD150
:1027DC007B681B686FF002021A617B6801221A7712
:1027EC007B681B689B6903F00303002B03D078689C
:1027FC0000F0B1F905E0786800F0A4F9786800F011
:10280C00B3F97B6800221A777B681B681B6903F09D
:10281C000403042B22D17B681B68DB6803F00403E0
:10282C00042B1BD17B681B686FF004021A617B6858
:10283C0002221A777B681B689B6903F44073002B98
:10284C0003D0786800F087F905E0786800F07AF931
:10285C00786800F089F97B6800221A777B681B681E
:10286C001B6903F00803082B22D17B681B68DB680B
:10287C0003F00803082B1BD17B681B686FF0080260
:10288C001A617B6804221A777B681B68DB6903F08A
:10289C000303002B03D0786800F05DF905E078683D
:1028AC0000F050F9786800F05FF97B6800221A7725
:1028BC007B681B681B6903F01003102B22D17B680B
:1028CC001B68DB6803F01003102B1BD17B681B68A3
:1028DC006FF010021A617B6808221A777B681B68FC
:1028EC00DB6903F44073002B03D0786800F033F9F4
:1028FC0005E0786800F026F9786800F035F97B6817
:10290C0000221A777B681B681B6903F00103012BFB
:10291C000ED17B681B68DB6803F00103012B07D128
:10292C007B681B686FF001021A617868FEF7A4FBE4
:10293C007B681B681B6903F08003802B0ED17B68BE
:10294C001B68DB6803F08003802B07D17B681B6856
:10295C006FF080021A61786800F067FA7B681B6878
:10296C001B6903F04003402B0ED17B681B68DB68AE
:10297C0003F04003402B07D17B681B686FF04002CB
:10298C001A61786800F0F9F87B681B681B6903F022
:10299C002003202B0ED17B681B68DB6803F020031F
:1029AC00202B07D17B681B686FF020021A617868B6
:1029BC0000F032FA00BF0837BD4680BD80B584B048
:1029CC0000AF786039607B6893F83C30012B01D103
:1029DC000223B3E07B68012283F83C207B6802224F
:1029EC0083F83D207B681B689B68FB60FB6823F0C9
:1029FC007703FB60FB6823F47F43FB607B681B68F9
:102A0C00FA689A603B681B68B3F5005F3ED0B3F57B
:102A1C00005F00F28780B3F5805F00F08580B3F52E
:102A2C00805F7FD8702B1AD0702B7BD8602B50D046
:102A3C00602B77D8502B3CD0502B73D8402B58D0D0
:102A4C00402B6FD8302B64D0302B6BD8202B60D020
:102A5C00202B67D8002B5CD0102B5AD062E07B68FF
:102A6C0018683B6899683B685A683B68DB6800F0FB
:102A7C005CF97B681B689B68FB60FB6843F0770321
:102A8C00FB607B681B68FA689A604EE07B6818688C
:102A9C003B6899683B685A683B68DB6800F045F90D
:102AAC007B681B689A687B681B6842F480429A605A
:102ABC003BE07B6818683B6859683B68DB681A46E2
:102ACC0000F0BCF87B681B685021184600F013F925
:102ADC002BE07B6818683B6859683B68DB681A46D2
:102AEC0000F0DAF87B681B686021184600F003F9E7
:102AFC001BE07B6818683B6859683B68DB681A46C2
:102B0C0000F09CF87B681B684021184600F0F3F835
:102B1C000BE07B681A683B681B681946104600F08E
:102B2C00EAF802E000BF00E000BF7B68012283F8F6
:102B3C003D207B68002283F83C2000231846103788
:102B4C00BD4680BD80B483B000AF786000BF0C3749
:102B5C00BD4680BC704780B483B000AF786000BFC6
:102B6C000C37BD4680BC704780B483B000AF786032
:102B7C0000BF0C37BD4680BC704780B483B000AF3B
:102B8C00786000BF0C37BD4680BC704780B485B000
:102B9C0000AF786039607B681B68FB607B68254AF6
:102BAC00934207D07B68B3F1804F03D07B68224AF5
:102BBC00934208D1FB6823F07003FB603B685B68B1
:102BCC00FA681343FB607B681A4A934207D07B6810
:102BDC00B3F1804F03D07B68174A934208D1FB684E
:102BEC0023F44073FB603B68DB68FA681343FB60BB
:102BFC00FB6823F080023B685B691343FB607B68D6
:102C0C00FA681A603B689A687B68DA623B681A68F3
:102C1C007B689A627B68074A934203D13B681A69C6
:102C2C007B681A637B6801225A6100BF1437BD466A
:102C3C0080BC7047002C01400004004080B487B079
:102C4C0000AFF860B9607A60FB681B6A7B61FB6857
:102C5C001B6A23F00102FB681A62FB689B693B61EB
:102C6C003B6923F0F0033B617B681B013A6913431A
:102C7C003B617B6923F00A037B617A69BB68134370
:102C8C007B61FB683A699A61FB687A691A6200BFDA
:102C9C001C37BD4680BC704780B487B000AFF8606D
:102CAC00B9607A60FB681B6A23F01002FB681A6239
:102CBC00FB689B697B61FB681B6A3B617B6923F446
:102CCC0070437B617B681B037A6913437B613B69AF
:102CDC0023F0A0033B61BB681B013A6913433B61C2
:102CEC00FB687A699A61FB683A691A6200BF1C3703
:102CFC00BD4680BC704780B485B000AF7860396049
:102D0C007B689B68FB60FB6823F07003FB603A6890
:102D1C00FB68134343F00703FB607B68FA689A6017
:102D2C0000BF1437BD4680BC704780B487B000AF7D
:102D3C00F860B9607A603B60FB689B687B617B697B
:102D4C0023F47F437B613B681A027B681A43BB68A0
:102D5C0013437A6913437B61FB687A699A6000BFFD
:102D6C001C37BD4680BC704780B485B000AF78601E
:102D7C0039607B6893F83C30012B01D1022341E090
:102D8C007B68012283F83C207B68022283F83D207B
:102D9C007B681B685B68FB607B681B689B68BB601F
:102DAC00FB6823F07003FB603B681B68FA681343F5
:102DBC00FB607B681B68FA685A607B681B68144A66
:102DCC00934209D07B681B68B3F1804F04D07B68B9
:102DDC001B68104A93420CD1BB6823F08003BB6084
:102DEC003B685B68BA681343BB607B681B68BA6856
:102DFC009A607B68012283F83D207B68002283F86F
:102E0C003C20002318461437BD4680BC704700BFD9
:102E1C00002C01400004004080B483B000AF786007
:102E2C0000BF0C37BD4680BC704780B483B000AF88
:102E3C00786000BF0C37BD4680BC704770B500266B
:102E4C000C4D0D4C641BA410A64209D100F022F8C5
:102E5C0000260A4D0A4C641BA410A64205D170BD75
:102E6C0055F8043B98470136EEE755F8043B984774
:102E7C000136F2E7D82E0008D82E0008D82E00080C
:102E8C00DC2E000803460244934200D1704703F83D
:102E9C00011BF9E7F8B500BFF8BC08BC9E467047AB
:0C2EAC00F8B500BFF8BC08BC9E4670479B
:102EB80002030405060708090A0B0C0D0E0F101073
:102EC80000000000000000000102030406070809D2
:042ED80031010008BC
:042EDC000D010008DC
:102EE00001000000010000000100000001000000DE
:102EF00001000000010000000100000001000000CE
:102F00000100000088130000D0070000B80B00008B
:102F1000881300000C0000000C00000010000000EE
:102F2000100000001000000001000000020000007E
:102F300003000000040000000024F400E803000087
:102F4000E8030000E8030000E8030000E8030000D5
:102F5000E8030000E803000010000000010000008A
:0400000508001801D6
:00000001FF
