:020000040800F2
:1000000000280020DD130008D50D0008DB0D0008D6
:10001000E10D0008E70D0008ED0D000800000000EC
:10002000000000000000000000000000F30D0008C8
:10003000FF0D0008000000000B0E0008170E00085E
:1000400025140008251400082514000825140008AC
:10005000251400082514000825140008251400089C
:10006000251400082514000825140008251400088C
:10007000251400082514000825140008251400087C
:10008000251400082514000825140008251400086C
:10009000251400082514000825140008251400085C
:1000A000251400082514000825140008251400084C
:1000B000250E000825140008000000002514000883
:1000C00025140008000000000000000025140008AE
:1000D000000000002514000825140008000000009E
:1000E000251400082514000825140008000000004D
:1000F0000000000000000000000000000000000000
:0C01000000000000000000005FF808F1A3
:10010C0010B5054C237833B9044B13B10448AFF345
:10011C0000800123237010BD60000020000000004F
:10012C007C2A000808B5034B1BB103490348AFF305
:10013C00008008BD00000000640000207C2A00083C
:10014C0080B483B000AF78607B68032B01DD0023A3
:10015C000DE0094A7B6852F82330002B06D0064A82
:10016C007B68002142F82310012300E0002318468D
:10017C000C37BD4680BC70477C00002080B582B037
:10018C0000AF00237B605DE0324A7B6852F823208D
:10019C0031497B6841F82320304A7B6852F8232090
:1001AC002C497B6841F823207B68022B1FD07B688D
:1001BC00022B27DC7B68002B03D07B68012B0BD038
:1001CC0020E00121264801F013FC03461946234A7E
:1001DC007B6842F8231016E00221214801F008FC4C
:1001EC00034619461D4A7B6842F823100BE0042194
:1001FC001B4801F0FDFB03461946184A7B6842F880
:10020C00231000E000BF144A7B6852F823201149E8
:10021C007B6851F823309A4211D10E4A7B6852F810
:10022C0023200E497B6851F823309A4207D10B4AA0
:10023C007B6852F823200B497B6841F823207B68AC
:10024C0001337B607B68022B9EDD00BF00BF08374B
:10025C00BD4680BD180000200C00002024000020AA
:10026C00000C01403000002080B582B000AF0023AC
:10027C007B6057E02F4A7B6852F82330162B3BD01B
:10028C00162B45DC142B02D0152B16D040E02A4A35
:10029C007B6852F82330002B3CD1284A7B68012123
:1002AC0042F8231040F6B831786800F0C5FD214AB9
:1002BC007B68152142F823102CE0786800F002FED0
:1002CC000346002B09D01E4A7B68012142F82310FB
:1002DC00184A7B68162142F82310174A7B6852F89B
:1002EC002330012B18D1786800F0C0FD114A7B68CF
:1002FC00142142F823100FE00F4A7B6852F8233088
:10030C00012B0BD10B4A7B68142142F8231005E01A
:10031C0000BF04E000BF02E000BF00E000BF7B684C
:10032C0001337B607B68022BA4DD00BF00BF083764
:10033C00BD4680BD00000020300000207C00002065
:10034C008800002080B582B000AF78607B68032BFA
:10035C005ED801A252F823F0750300089F03000831
:10036C00C9030008F303000800220821354801F0F6
:10037C0056FB01221021334801F051FB01222021B0
:10038C00304801F04CFB012240212E4801F047FB84
:10039C0053E0012208212B4801F041FB00221021DF
:1003AC00284801F03CFB01222021264801F037FBB4
:1003BC0001224021234801F032FB3EE001220821BA
:1003CC00204801F02CFB012210211E4801F027FBD4
:1003DC00002220211B4801F022FB01224021194858
:1003EC0001F01DFB29E001220821164801F017FB42
:1003FC0001221021134801F012FB01222021114887
:10040C0001F00DFB002240210E4801F008FB14E026
:10041C00012208210B4801F002FB0122102109489E
:10042C0001F0FDFA01222021064801F0F8FA012220
:10043C004021044801F0F3FA00BF00BF0837BD4665
:10044C0080BD00BF000C014080B582B000AF786069
:10045C007B68092B00F2B28101A252F823F000BF95
:10046C0095040008E7040008390500088B0500080E
:10047C00DD0500082F06000881060008D3060008D9
:10048C00250700087707000800224021CE4801F01C
:10049C00C6FA00228021CC4801F0C1FA00224FF4A8
:1004AC008071C94801F0BBFA00224FF40071C648B4
:1004BC0001F0B5FA00224FF48061C34801F0AFFAA5
:1004CC0000224FF40061C04801F0A9FA01224FF458
:1004DC008051BD4801F0A3FA71E101224021BA48D4
:1004EC0001F09DFA00228021B74801F098FA002211
:1004FC004FF48071B44801F092FA01224FF400716C
:10050C00B14801F08CFA01224FF48061AE4801F041
:10051C0086FA01224FF40061AB4801F080FA012207
:10052C004FF48051A84801F07AFA48E100224021AA
:10053C00A54801F074FA00228021A34801F06FFA5B
:10054C0001224FF48071A04801F069FA00224FF4A7
:10055C0000719D4801F063FA00224FF480619A48C3
:10056C0001F05DFA01224FF40061974801F057FA4F
:10057C0000224FF48051944801F051FA1FE10022FF
:10058C004021914801F04BFA002280218E4801F065
:10059C0046FA00224FF480718B4801F040FA002299
:1005AC004FF40071884801F03AFA01224FF480614F
:1005BC00854801F034FA01224FF40061824801F0C1
:1005CC002EFA00224FF480517F4801F028FAF6E011
:1005DC00012240217C4801F022FA002280217A4835
:1005EC0001F01DFA00224FF48071774801F017FAE0
:1005FC0001224FF40071744801F011FA01224FF4FA
:10060C008061714801F00BFA00224FF400616E48D2
:10061C0001F005FA00224FF480516B4801F0FFF90C
:10062C00CDE000224021684801F0F9F90122802137
:10063C00654801F0F4F900224FF48071624801F032
:10064C00EEF900224FF400715F4801F0E8F9012245
:10065C004FF480615C4801F0E2F900224FF4006134
:10066C00594801F0DCF900224FF48051564801F052
:10067C00D6F9A4E000224021534801F0D0F9012220
:10068C008021514801F0CBF900224FF480714E4883
:10069C0001F0C5F900224FF400714B4801F0BFF98D
:1006AC0000224FF48061484801F0B9F900224FF460
:1006BC000061454801F0B3F900224FF480514248E3
:1006CC0001F0ADF97BE0002240213F4801F0A7F991
:1006DC00002280213C4801F0A2F900224FF48071E5
:1006EC00394801F09CF901224FF40071364801F0B1
:1006FC0096F901224FF48061334801F090F9012200
:10070C004FF40061304801F08AF901224FF4805116
:10071C002D4801F084F952E0002240212A4801F0D2
:10072C007EF900228021284801F079F900224FF44B
:10073C008071254801F073F900224FF400712248B2
:10074C0001F06DF900224FF480611F4801F067F948
:10075C0000224FF400611C4801F061F900224FF4B3
:10076C008051194801F05BF929E00022402116481C
:10077C0001F055F900228021134801F050F90022B4
:10078C004FF48071104801F04AF900224FF40071C7
:10079C000D4801F044F901224FF480610A4801F040
:1007AC003EF900224FF40061074801F038F90022AD
:1007BC004FF48051044801F032F900E000BF00BF53
:1007CC000837BD4680BD00BF0008014080B483B02F
:1007DC0000AF78607B68104A82FB03121213DB17A0
:1007EC00D31A0E4A13607B680D4A82FB03129211D6
:1007FC00DB17D11A0B4B83FB01239A10CB17D21AA0
:10080C0013469B0013445B00CA1A044B5A6000BF8A
:10081C000C37BD4680BC7047AD8BDB689800002060
:10082C00D34D62106766666680B483B000AF7860A3
:10083C007B68104A82FB03121213DB17D31A0E4A81
:10084C0093607B680D4A82FB03129211DB17D11A5D
:10085C000B4B83FB01239A10CB17D21A13469B0028
:10086C0013445B00CA1A044BDA6000BF0C37BD4658
:10087C0080BC7047AD8BDB6898000020D34D6210B4
:10088C006766666680B500AF124B1B681846FFF7AB
:10089C0059FD104B1B68104A52F823301846FFF7CD
:1008AC00D3FD032000F00EFB0346002B10D0094BA8
:1008BC001B6801335A4203F0030302F0030258BFD2
:1008CC005342044A13604FF4FA71032000F0B4FA57
:1008DC0000BF80BDA80000209800002080B500AFAC
:1008EC001E4B1B680C2B26D00C2B34DC0A2B02D095
:1008FC000B2B10D02FE000220121194801F08FF8AA
:10090C0001220221164801F08AF801220421144820
:10091C0001F085F820E001220121114801F07FF857
:10092C00002202210E4801F07AF8012204210C4821
:10093C0001F075F810E001220121094801F06FF86F
:10094C0001220221064801F06AF800220421044821
:10095C0001F065F800E000BF00BF80BD3C00002046
:10096C000008014080B500AF1E4B1B680C2B26D035
:10097C000C2B34DC0A2B02D00B2B10D02FE00022D6
:10098C000821194801F04BF801221021164801F0FA
:10099C0046F801222021144801F041F820E0012200
:1009AC000821114801F03BF8002210210E4801F0FB
:1009BC0036F8012220210C4801F031F810E0012218
:1009CC000821094801F02BF801221021064801F0FA
:1009DC0026F800222021044801F021F800E000BF95
:1009EC0000BF80BD400000200008014080B500AF72
:1009FC001D4B1B680C2B24D00C2B31DC0A2B02D08A
:100A0C000B2B0FD02CE00121184801F020F801220B
:100A1C000221164801F003F801220421134800F0CA
:100A2C00FEFF1EE001220421104800F0F8FF022115
:100A3C000E4801F00CF8012201210C4800F0EFFFE8
:100A4C000FE001220221094800F0E9FF01220121F7
:100A5C00064800F0E4FF0421044800F0F8FF00E031
:100A6C0000BF00BF80BD00BF3C000020000801405B
:100A7C0080B500AF1D4B1B680C2B24D00C2B31DC2C
:100A8C000A2B02D00B2B0FD02CE00821184800F0B9
:100A9C00DEFF01221021164800F0C1FF01222021A7
:100AAC00134800F0BCFF1EE001222021104800F08A
:100ABC00B6FF10210E4800F0CAFF012208210C4895
:100ACC0000F0ADFF0FE001221021094800F0A7FF54
:100ADC0001220821064800F0A2FF2021044800F062
:100AEC00B6FF00E000BF00BF80BD00BF400000208B
:100AFC000008014080B500AF00F090FC00F014F845
:100B0C0000F09AF800F04CF8064801F0F1FB642173
:100B1C00032000F091F9FFF7A7FBFFF7B3FE00F0FD
:100B2C00C3FAF8E7FC00002080B590B000AF07F1E5
:100B3C00180328220021184601F092FF3B1D0022C9
:100B4C001A605A609A60DA601A610223BB61012351
:100B5C00BB621023FB6200237B6307F1180318466A
:100B6C0000F08EFF0346002B01D000F0D1F80F23CC
:100B7C007B600023BB600023FB6000233B610023F0
:100B8C007B613B1D0021184601F0FAF90346002B4E
:100B9C0001D000F0BDF800BF4037BD4680BD00005D
:100BAC0080B586B000AF07F1080300221A605A60C6
:100BBC009A60DA603B4600221A605A601D4B4FF077
:100BCC0080421A601B4B41F63F725A60194B00224F
:100BDC009A60184B0A22DA60164B00221A61154BE8
:100BEC0000229A61134801F033FB0346002B01D01D
:100BFC0000F08EF84FF48053BB6007F108031946E0
:100C0C000C4801F0C9FC0346002B01D000F080F821
:100C1C0000233B6000237B603B461946054801F0EE
:100C2C0091FE0346002B01D000F072F800BF18377C
:100C3C00BD4680BDFC00002080B586B000AF07F13A
:100C4C00080300221A605A609A60DA60274B9B698D
:100C5C00264A43F004039361244B9B6903F004037D
:100C6C007B607B68214B9B69204A43F008039361AE
:100C7C001E4B9B6903F008033B603B68002241F666
:100C8C00FF711B4800F0CBFE00227821194800F0C0
:100C9C00C6FE41F6FF73BB600123FB6000233B6182
:100CAC0002237B6107F108031946114800F026FD69
:100CBC000723BB600023FB6001233B6107F10803A2
:100CCC0019460C4800F01AFD7823BB600123FB6029
:100CDC0000233B6102237B6107F108031946054899
:100CEC0000F00CFD00BF1837BD4680BD001002405F
:100CFC0000080140000C014080B582B000AF786064
:100D0C0000F0FAF8FFF73AFA00BF0837BD4680BD8D
:100D1C0080B400AF72B600BFFEE7000080B485B0AF
:100D2C0000AF154B9B69144A43F001039361124BBE
:100D3C009B6903F00103BB60BB680F4BDB690E4A78
:100D4C0043F08053D3610C4BDB6903F080537B6021
:100D5C007B680A4B5B68FB60FB6823F0E063FB601D
:100D6C00FB6843F08063FB60044AFB68536000BF80
:100D7C001437BD4680BC7047001002400000014093
:100D8C0080B584B000AF78607B681B68B3F1804F8E
:100D9C0013D10C4BDB690B4A43F00103D361094BB4
:100DAC00DB6903F00103FB60FB68002200211C20BF
:100DBC0000F06DFC1C2000F086FC00BF1037BD4617
:100DCC0080BD00BF0010024080B400AFFEE780B4CD
:100DDC0000AFFEE780B400AFFEE780B400AFFEE7E3
:100DEC0080B400AFFEE780B400AF00BFBD4680BC4E
:100DFC00704780B400AF00BFBD4680BC704780B464
:100E0C0000AF00BFBD4680BC704780B500AF00F09E
:100E1C004BFB00BF80BD000080B500AF024801F065
:100E2C00B3FA00BF80BD00BFFC00002080B400AF4F
:100E3C0000BFBD4680BC704780B483B000AF786003
:100E4C0039603B68074A82FB03129210DB17D21AF7
:100E5C0005497B6841F8232000BF0C37BD4680BC98
:100E6C00704700BF67666666AC00002080B483B034
:100E7C0000AF7860074A7B68002142F82310064ACD
:100E8C007B68002142F8231000BF0C37BD4680BCA4
:100E9C00704700BFAC000020D400002080B483B0A9
:100EAC0000AF7860064A7B6852F8232013469B00FB
:100EBC0013445B0018460C37BD4680BC704700BF1E
:100ECC00AC00002080B483B000AF7860094A7B6826
:100EDC0052F82330002B06D0064A7B68002142F8DA
:100EEC002310012300E0002318460C37BD4680BCBC
:100EFC00704700BFD400002080B483B000AF002343
:100F0C007B601CE0124A7B6852F82330002B13DD07
:100F1C000F4A7B6852F823305A1E0D497B6841F802
:100F2C0023200B4A7B6852F82330002B04DC094A3F
:100F3C007B68012142F823107B6801337B607B685E
:100F4C00092BDFDD00BF00BF0C37BD4680BC7047EE
:100F5C00AC000020D400002080B500AF244B1B68EF
:100F6C000C2B2AD00C2B3ADC0A2B02D00B2B12D0D8
:100F7C0035E0FFF7B3FC0420FFF7A4FF0346002B7A
:100F8C002FD01B4B0C221A601A4B1B6819460420DD
:100F9C00FFF752FF25E0FFF7A1FC0420FFF792FFBB
:100FAC000346002B1FD0124B0A221A60124B1B68EF
:100FBC0019460420FFF740FF15E0FFF78FFC0420D3
:100FCC00FFF780FF0346002B0FD0094B0B221A6052
:100FDC000A4B1B6819460420FFF72EFF05E000BFE3
:100FEC0004E000BF02E000BF00E000BF00BF80BD16
:100FFC003C0000204C000020440000204800002051
:10100C0080B500AF244B1B680C2B2AD00C2B3ADC80
:10101C000A2B02D00B2B12D035E0FFF7A3FC0520D6
:10102C00FFF750FF0346002B2FD01B4B0C221A60EE
:10103C001A4B1B6819460520FFF7FEFE25E0FFF74B
:10104C0091FC0520FFF73EFF0346002B1FD0124BEF
:10105C000A221A60124B1B6819460520FFF7ECFE9A
:10106C0015E0FFF77FFC0520FFF72CFF0346002B54
:10107C000FD0094B0B221A600A4B1B68194605202E
:10108C00FFF7DAFE05E000BF04E000BF02E000BF9E
:10109C0000E000BF00BF80BD400000204C000020DD
:1010AC00440000204800002080B500AFBF4B1B68F7
:1010BC00042B00F26F8101A252F823F0DD1000081E
:1010CC00131100087F11000835120008E9120008FE
:1010DC00B74B0A221A60B74B0C221A604FF4FA7104
:1010EC000320FFF7A9FEB44B1B6819460420FFF739
:1010FC00A3FEB24B1B6819460520FFF79DFEAB4BB8
:10110C0001221A604FE1FFF727FFFFF779FF042058
:10111C00FFF7C4FE03461846FFF758FB0520FFF700
:10112C00BDFE03461846FFF77FFB0020FFF708F8CB
:10113C000346002B00F030810420FFF797FE0520BA
:10114C00FFF794FE9A4B0A221A609A4B0A221A60F5
:10115C004FF4FA710620FFF76FFEFFF7BFFBFFF7A6
:10116C0001FC954B1B68964A1360904B02221A6047
:10117C0012E18E4B1B684FF47A7202FB03F3184694
:10118C00FFF724FB8E4B1B681846FFF74DFB062020
:10119C00FFF798FE0346002B08D0FFF727FCFFF75C
:1011AC0067FC4FF4FA710620FFF746FE0120FEF7AC
:1011BC00C7FF0346002B0FD0814B1B6803F57A72D7
:1011CC00804B83FB02135913D317CB1A7E4901FBB7
:1011DC0003F3D31A7A4A13600220FEF7B1FF0346D9
:1011EC00002B03D0764B1B68734A13600020FEF76C
:1011FC00A7FF0346002B00F0D1806D4B0B221A6029
:10120C006C4B0B221A604FF4FA710620FFF714FE98
:10121C00FFF764FBFFF7A6FB6C4B1B68684A136077
:10122C00624B03221A60B9E0604B1B684FF47A7270
:10123C0002FB03F31846FFF7C9FA614B1B6818460B
:10124C00FFF7F2FA0620FFF73DFE0346002B08D00D
:10125C00FFF7CCFBFFF70CFC4FF4FA710620FFF7FD
:10126C00EBFD0120FEF76CFF0346002B0FD0544B17
:10127C001B6803F57A72534B83FB02135913D31774
:10128C00CB1A514901FB03F3D31A4D4A13600220C8
:10129C00FEF756FF0346002B03D0494B1B684B4A05
:1012AC0013600020FEF74CFF0346002B78D0404B18
:1012BC000C221A603F4B0C221A604FF4FA71062074
:1012CC00FFF7BAFDFFF70AFBFFF74CFB3B4B1B6824
:1012DC003B4A1360354B04221A6061E0334B1B68A8
:1012EC004FF47A7202FB03F31846FFF76FFA344B94
:1012FC001B681846FFF798FA0620FFF7E3FD034634
:10130C00002B08D0FFF772FBFFF7B2FB4FF4FA711A
:10131C000620FFF791FD0120FEF712FF0346002B7C
:10132C000FD0274B1B6803F57A72264B83FB0213F5
:10133C005913D317CB1A244901FB03F3D31A204AB0
:10134C0013600220FEF7FCFE0346002B03D01C4B5F
:10135C001B681A4A13600020FEF7F2FE0346002BAE
:10136C0020D00620FFF782FD114B0A221A60114B88
:10137C000C221A60104B1B6819460420FFF75CFD09
:10138C000E4B1B6819460520FFF756FD074B012233
:10139C001A6007E000BF06E000BF04E000BF02E0F7
:1013AC0000BF00E000BF00BF80BD00BF9400002064
:1013BC003C00002040000020440000204C00002095
:1013CC005000002089B5F814A086010048000020C8
:1013DC000C480D490D4A002302E0D458C450043384
:1013EC00C4188C42F9D30A4A0A4C002301E013605A
:1013FC000432A242FBD3FFF719FD01F00DFBFFF7FE
:10140C0079FB70470000002060000020BC2A000817
:10141C006000002048010020FEE7000080B500AF0E
:10142C00084B1B68074A43F010031360032000F0BD
:10143C0023F90F2000F008F8FFF770FC0023184682
:10144C0080BD00BF0020024080B582B000AF786044
:10145C00124B1A68124B1B7819464FF47A73B3FB74
:10146C00F1F3B2FBF3F3184600F03BF90346002B03
:10147C0001D001230EE07B680F2B0AD8002279687B
:10148C004FF0FF3000F003F9064A7B68136000232D
:10149C0000E0012318460837BD4680BD54000020EB
:1014AC005C0000205800002080B400AF054B1B7876
:1014BC001A46054B1B681344034A136000BFBD4614
:1014CC0080BC70475C0000204401002080B400AF59
:1014DC00024B1B681846BD4680BC70474401002077
:1014EC0080B485B000AF78607B6803F00703FB60C5
:1014FC000C4BDB68BB60BA684FF6FF031340BB6054
:10150C00FB681A02BB68134343F0BF6343F4003318
:10151C00BB60044ABB68D36000BF1437BD4680BCB7
:10152C00704700BF00ED00E080B400AF044BDB68F7
:10153C001B0A03F007031846BD4680BC704700BF6A
:10154C0000ED00E080B483B000AF0346FB7197F967
:10155C000730002B0BDBFB7903F01F02064997F9D0
:10156C0007305B09012000FA02F241F8232000BF8A
:10157C000C37BD4680BC704700E100E080B483B0FE
:10158C0000AF03463960FB7197F90730002B0ADB7B
:10159C003B68DAB20C4997F907301201D2B20B440E
:1015AC0083F800230AE03B68DAB20849FB7903F0C0
:1015BC000F03043B1201D2B20B441A7600BF0C3756
:1015CC00BD4680BC704700BF00E100E000ED00E0CC
:1015DC0080B489B000AFF860B9607A60FB6803F042
:1015EC000703FB61FB69C3F10703042B28BF04232A
:1015FC00BB61FB690433062B02D9FB69033B00E09A
:10160C0000237B614FF0FF32BB6902FA03F3DA432C
:10161C00BB681A407B699A404FF0FF317B6901FA35
:10162C0003F3D9437B680B40134318462437BD465C
:10163C0080BC704780B582B000AF78607B68013B9E
:10164C00B3F1807F01D301230FE00A4A7B68013B91
:10165C0053600F214FF0FF30FFF790FF054B002236
:10166C009A60044B07221A60002318460837BD46BF
:10167C0080BD00BF10E000E080B582B000AF7860A4
:10168C007868FFF72DFF00BF0837BD4680BD80B5D9
:10169C0086B000AF0346B9607A60FB7300237B61B0
:1016AC00FFF742FF78617A68B9687869FFF790FFB5
:1016BC00024697F90F3011461846FFF75FFF00BF3F
:1016CC001837BD4680BD80B582B000AF0346FB71B4
:1016DC0097F907301846FFF735FF00BF0837BD46AE
:1016EC0080BD80B582B000AF78607868FFF7A2FF4C
:1016FC00034618460837BD4680BD000080B48BB049
:10170C0000AF7860396000237B6200233B6248E1C4
:10171C0001227B6A02FA03F3FB613B681B68FA69DE
:10172C001340BB61BA69FB699A4240F037813B6850
:10173C005B68A34A93425ED0A14A934275D8A14AF2
:10174C00934258D09F4A93426FD89F4A934252D0AB
:10175C009D4A934269D89D4A93424CD09B4A9342EE
:10176C0063D89B4A934246D0994A93425DD8122B38
:10177C002AD8122B59D801A252F823F003180008CA
:10178C00DD170008EF17000831180008371800089B
:10179C0037180008371800083718000837180008E1
:1017AC0037180008371800083718000837180008D1
:1017BC0037180008371800083718000837180008C1
:1017CC00E5170008F9170008824A934213D02CE061
:1017DC003B68DB683B6229E03B68DB6804333B62B7
:1017EC0024E03B68DB6808333B621FE03B68DB6846
:1017FC000C333B621AE03B689B68002B02D104233C
:10180C003B6213E03B689B68012B05D108233B62CC
:10181C007B68FA691A6109E008233B627B68FA6904
:10182C005A6103E000233B6200E000BFBB69FF2B61
:10183C0001D87B6801E07B6804337B61BB69FF2BBB
:10184C0002D87B6A9B0002E07B6A083B9B003B61F1
:10185C007B691A680F213B6901FA03F3DB431A40D9
:10186C00396A3B6901FA03F31A437B691A603B68D6
:10187C005B6803F08053002B00F09080564B9B6903
:10188C00554A43F001039361534B9B6903F00103E9
:10189C00BB60BB68514A7B6A9B08023352F8233009
:1018AC00FB607B6A03F003039B000F2202FA03F335
:1018BC00DB43FA681340FB607B68494A93420DD0C6
:1018CC007B68484A934207D07B68474A934201D1D0
:1018DC00022304E0032302E0012300E000237A6AE0
:1018EC0002F0030292009340FA681343FB603B49F9
:1018FC007B6A9B080233FA6841F823203B685B68DB
:10190C0003F48033002B06D0384B1A683749BB6977
:10191C0013430B6006E0354B1A68BB69DB43334954
:10192C0013400B603B685B6803F40033002B06D05C
:10193C002E4B5A682D49BB6913434B6006E02B4B69
:10194C005A68BB69DB43294913404B603B685B68B1
:10195C0003F48013002B06D0244B9A682349BB69EF
:10196C0013438B6006E0214B9A68BB69DB431F492C
:10197C0013408B603B685B6803F40013002B06D0AC
:10198C001A4BDA681949BB691343CB6006E0174B55
:10199C00DA68BB69DB4315491340CB607B6A0133C2
:1019AC007B623B681A687B6A22FA03F3002B7FF494
:1019BC00AFAE00BF00BF2C37BD4680BC704700BF28
:1019CC000000321000003110000022100000211025
:1019DC000000121000001110001002400000014025
:1019EC0000080140000C01400010014000040140BF
:1019FC0080B485B000AF78600B467B807B689A68BA
:101A0C007B881340002B02D00123FB7301E00023E1
:101A1C00FB73FB7B18461437BD4680BC704780B403
:101A2C0083B000AF78600B467B8013467B707B786D
:101A3C00002B03D07A887B681A6103E07B881A0438
:101A4C007B681A6100BF0C37BD4680BC704780B400
:101A5C0085B000AF78600B467B807B68DB68FB60F1
:101A6C007A88FB6813401A04FB68D9437B880B40C7
:101A7C001A437B681A6100BF1437BD4680BC70479F
:101A8C0080B586B000AF78607B68002B01D1012354
:101A9C006CE27B681B6803F00103002B00F087806D
:101AAC00924B5B6803F00C03042B0CD08F4B5B68E0
:101ABC0003F00C03082B12D18C4B5B6803F48033BE
:101ACC00B3F5803F0BD1894B1B6803F40033002B1B
:101ADC006CD07B685B68002B68D1012346E27B6885
:101AEC005B68B3F5803F06D1804B1B687F4A43F49B
:101AFC00803313602EE07B685B68002B0CD17B4B32
:101B0C001B687A4A23F480331360784B1B68774A3E
:101B1C0023F4802313601DE07B685B68B3F5A02F72
:101B2C000CD1724B1B68714A43F4802313606F4BCA
:101B3C001B686E4A43F4803313600BE06B4B1B68DD
:101B4C006A4A23F480331360684B1B68674A23F49A
:101B5C00802313607B685B68002B13D0FFF7B6FC07
:101B6C00386108E0FFF7B2FC02463B69D31A642BDC
:101B7C0001D90323FAE15D4B1B6803F40033002BFE
:101B8C00F0D014E0FFF7A2FC386108E0FFF79EFCF0
:101B9C0002463B69D31A642B01D90323E6E1534B6C
:101BAC001B6803F40033002BF0D100E000BF7B680E
:101BBC001B6803F00203002B63D04C4B5B6803F0F3
:101BCC000C03002B0BD0494B5B6803F00C03082B68
:101BDC001CD1464B5B6803F48033002B16D1434B6E
:101BEC001B6803F00203002B05D07B681B69012BDB
:101BFC0001D00123BAE13D4B1B6823F0F8027B684E
:101C0C005B69DB00394913430B603AE07B681B6965
:101C1C00002B20D0364B01221A60FFF757FC38619D
:101C2C0008E0FFF753FC02463B69D31A022B01D99B
:101C3C0003239BE12D4B1B6803F00203002BF0D018
:101C4C002A4B1B6823F0F8027B685B69DB00274991
:101C5C0013430B6015E0264B00221A60FFF736FC8D
:101C6C00386108E0FFF732FC02463B69D31A022BBD
:101C7C0001D903237AE11D4B1B6803F00203002BEF
:101C8C00F0D17B681B6803F00803002B3AD07B680B
:101C9C009B69002B19D0174B01221A60FFF716FC19
:101CAC00386108E0FFF712FC02463B69D31A022B9D
:101CBC0001D903235AE10D4B5B6A03F00203002B9D
:101CCC00F0D0012000F0A6FA1CE00A4B00221A60AA
:101CDC00FFF7FCFB38610FE0FFF7F8FB02463B69AE
:101CEC00D31A022B08D9032340E100BF0010024095
:101CFC0000004242800442429E4B5B6A03F00203A6
:101D0C00002BE9D17B681B6803F00403002B00F067
:101D1C00A6800023FB75974BDB6903F08053002BE7
:101D2C000DD1944BDB69934A43F08053D361914BB3
:101D3C00DB6903F08053BB60BB680123FB758E4BE2
:101D4C001B6803F48073002B18D18B4B1B688A4AD9
:101D5C0043F480731360FFF7B9FB386108E0FFF7B9
:101D6C00B5FB02463B69D31A642B01D90323FDE072
:101D7C00814B1B6803F48073002BF0D07B68DB680D
:101D8C00012B06D17B4B1B6A7A4A43F00103136289
:101D9C002DE07B68DB68002B0CD1764B1B6A754AF7
:101DAC0023F001031362734B1B6A724A23F0040382
:101DBC0013621CE07B68DB68052B0CD16D4B1B6A36
:101DCC006C4A43F0040313626A4B1B6A694A43F082
:101DDC00010313620BE0674B1B6A664A23F0010395
:101DEC001362644B1B6A634A23F0040313627B681F
:101DFC00DB68002B15D0FFF769FB38610AE0FFF7B1
:101E0C0065FB02463B69D31A41F28832934201D9F1
:101E1C000323ABE0574B1B6A03F00203002BEED0FD
:101E2C0014E0FFF753FB38610AE0FFF74FFB024663
:101E3C003B69D31A41F28832934201D9032395E0CE
:101E4C004C4B1B6A03F00203002BEED1FB7D012BE4
:101E5C0005D1484BDB69474A23F08053D3617B683B
:101E6C00DB69002B00F08180424B5B6803F00C03B4
:101E7C00082B61D07B68DB69022B46D13F4B0022DB
:101E8C001A60FFF723FB386108E0FFF71FFB0246DF
:101E9C003B69D31A022B01D9032367E0354B1B682E
:101EAC0003F00073002BF0D17B681B6AB3F5803F05
:101EBC0008D1304B5B6823F400327B689B682D495A
:101ECC0013434B602B4B5B6823F474127B68196AC9
:101EDC007B685B6A0B43274913434B60274B0122FA
:101EEC001A60FFF7F3FA386108E0FFF7EFFA0246E1
:101EFC003B69D31A022B01D9032337E01D4B1B6816
:101F0C0003F00073002BF0D02FE01C4B00221A6062
:101F1C00FFF7DCFA386108E0FFF7D8FA02463B69B4
:101F2C00D31A022B01D9032320E0124B1B6803F0B8
:101F3C000073002BF0D118E07B68DB69012B01D119
:101F4C00012313E00B4B5B68FB60FB6803F48032EE
:101F5C007B681B6A9A4206D1FB6803F470127B689B
:101F6C005B6A9A4201D0012300E00023184618371F
:101F7C00BD4680BD0010024000700040600042422F
:101F8C0080B584B000AF786039607B68002B01D1DC
:101F9C000123D0E06A4B1B6803F007033A689A42AE
:101FAC0010D9674B1B6823F0070265493B68134344
:101FBC000B60634B1B6803F007033A689A4201D02D
:101FCC000123B8E07B681B6803F00203002B20D0D0
:101FDC007B681B6803F00403002B05D0594B5B682E
:101FEC00584A43F4E06353607B681B6803F00803B2
:101FFC00002B05D0534B5B68524A43F4605353603B
:10200C00504B5B6823F0F0027B689B684D4913438F
:10201C004B607B681B6803F00103002B40D07B688E
:10202C005B68012B07D1474B1B6803F40033002B73
:10203C0015D101237FE07B685B68022B07D1414BF4
:10204C001B6803F00073002B09D1012373E03D4B97
:10205C001B6803F00203002B01D101236BE0394B09
:10206C005B6823F003027B685B68364913434B6063
:10207C00FFF72CFAF8600AE0FFF728FA0246FB6833
:10208C00D31A41F28832934201D9032353E02D4BEA
:10209C005B6803F00C027B685B689B009A42EBD197
:1020AC00274B1B6803F007033A689A4210D2244B63
:1020BC001B6823F0070222493B6813430B60204B3B
:1020CC001B6803F007033A689A4201D0012332E0FF
:1020DC007B681B6803F00403002B08D0194B5B686A
:1020EC0023F4E0627B68DB68164913434B607B6822
:1020FC001B6803F00803002B09D0124B5B6823F418
:10210C0060527B681B69DB000E4913434B6000F087
:10211C0021F802460B4B5B681B0903F00F030A49BD
:10212C00CB5C22FA03F3094A1360094B1B6818466F
:10213C00FFF78AF9002318461037BD4680BD00BF53
:10214C000020024000100240A42A00085400002085
:10215C005800002090B48AB000AF2A4B3C1D0FCB26
:10216C0084E80F0040F201233B800023FB61002335
:10217C00BB6100237B6200237B6100233B62224B0B
:10218C005B68FB61FB6903F00C03042B02D0082B8A
:10219C0003D02DE01D4B3B622DE0FB699B0C03F043
:1021AC000F0307F12802134413F8243C7B61FB69ED
:1021BC0003F48033002B13D0134B5B685B0C03F0E0
:1021CC00010307F12802134413F8283CBB617B6917
:1021DC000E4A02FB03F2BB69B2FBF3F37B6204E031
:1021EC007B690B4A02FB03F37B627B6A3B6202E076
:1021FC00064B3B6200BF3B6A18462837BD4690BC75
:10220C00704700BF942A00080010024000127A00A8
:10221C0000093D0080B485B000AF78600A4B1B68A4
:10222C000A4AA2FB03235B0A7A6802FB03F3FB60F6
:10223C0000BFFB685A1EFA60002BF9D100BF00BF2B
:10224C001437BD4680BC704754000020D34D62103B
:10225C0080B582B000AF78607B68002B01D1012380
:10226C0041E07B6893F83D30DBB2002B06D17B68F4
:10227C00002283F83C207868FEF782FD7B680222FE
:10228C0083F83D207B681A687B6804331946104636
:10229C0000F06AFA7B68012283F846207B680122F1
:1022AC0083F83E207B68012283F83F207B68012263
:1022BC0083F840207B68012283F841207B6801224F
:1022CC0083F842207B68012283F843207B6801223B
:1022DC0083F844207B68012283F845207B68012227
:1022EC0083F83D20002318460837BD4680BD00000A
:1022FC0080B485B000AF78607B6893F83D30DBB27A
:10230C00012B01D0012335E07B68022283F83D20AC
:10231C007B681B68DA687B681B6842F00102DA6034
:10232C007B681B68164A934209D07B681B68B3F123
:10233C00804F04D07B681B68124A934211D17B6892
:10234C001B689B6803F00703FB60FB68062B10D02F
:10235C007B681B681A687B681B6842F001021A6074
:10236C0007E07B681B681A687B681B6842F00102F7
:10237C001A60002318461437BD4680BC704700BF56
:10238C00002C01400004004080B582B000AF7860A2
:10239C007B681B681B6903F00203022B22D17B684C
:1023AC001B68DB6803F00203022B1BD17B681B68E4
:1023BC006FF002021A617B6801221A777B681B6836
:1023CC009B6903F00303002B03D0786800F0B1F98C
:1023DC0005E0786800F0A4F9786800F0B3F97B6840
:1023EC0000221A777B681B681B6903F00403042B1B
:1023FC0022D17B681B68DB6803F00403042B1BD120
:10240C007B681B686FF004021A617B6802221A77E2
:10241C007B681B689B6903F44073002B03D07868BE
:10242C0000F087F905E0786800F07AF9786800F038
:10243C0089F97B6800221A777B681B681B6903F09B
:10244C000803082B22D17B681B68DB6803F00803A8
:10245C00082B1BD17B681B686FF008021A617B6824
:10246C0004221A777B681B68DB6903F00303002BDB
:10247C0003D0786800F05DF905E0786800F050F959
:10248C00786800F05FF97B6800221A777B681B681C
:10249C001B6903F01003102B22D17B681B68DB68CF
:1024AC0003F01003102B1BD17B681B686FF010021C
:1024BC001A617B6808221A777B681B68DB6903F456
:1024CC004073002B03D0786800F033F905E078688E
:1024DC0000F026F9786800F035F97B6800221A774D
:1024EC007B681B681B6903F00103012B0ED17B6811
:1024FC001B68DB6803F00103012B07D17B681B68A9
:10250C006FF001021A617868FEF7F6FB7B681B68B6
:10251C001B6903F08003802B0ED17B681B68DB6882
:10252C0003F08003802B07D17B681B686FF080025F
:10253C001A61786800F067FA7B681B681B6903F006
:10254C004003402B0ED17B681B68DB6803F0400313
:10255C00402B07D17B681B686FF040021A617868CA
:10256C0000F0F9F87B681B681B6903F02003202B33
:10257C000ED17B681B68DB6803F02003202B07D18E
:10258C007B681B686FF020021A61786800F032FAE1
:10259C0000BF0837BD4680BD80B584B000AF786001
:1025AC0039607B6893F83C30012B01D10223B3E0F6
:1025BC007B68012283F83C207B68022283F83D2053
:1025CC007B681B689B68FB60FB6823F07703FB60F0
:1025DC00FB6823F47F43FB607B681B68FA689A6096
:1025EC003B681B68B3F5005F3ED0B3F5005F00F2AB
:1025FC008780B3F5805F00F08580B3F5805F7FD86E
:10260C00702B1AD0702B7BD8602B50D0602B77D8C6
:10261C00502B3CD0502B73D8402B58D0402B6FD81C
:10262C00302B64D0302B6BD8202B60D0202B67D86C
:10263C00002B5CD0102B5AD062E07B6818683B688A
:10264C0099683B685A683B68DB6800F05CF97B680A
:10265C001B689B68FB60FB6843F07703FB607B683F
:10266C001B68FA689A604EE07B6818683B6899684A
:10267C003B685A683B68DB6800F045F97B681B686F
:10268C009A687B681B6842F480429A603BE07B68E6
:10269C0018683B6859683B68DB681A4600F0BCF860
:1026AC007B681B685021184600F013F92BE07B68FF
:1026BC0018683B6859683B68DB681A4600F0DAF822
:1026CC007B681B686021184600F003F91BE07B68EF
:1026DC0018683B6859683B68DB681A4600F09CF840
:1026EC007B681B684021184600F0F3F80BE07B6810
:1026FC001A683B681B681946104600F0EAF802E0BD
:10270C0000BF00E000BF7B68012283F83D207B689E
:10271C00002283F83C20002318461037BD4680BDAC
:10272C0080B483B000AF786000BF0C37BD4680BC6E
:10273C00704780B483B000AF786000BF0C37BD46E3
:10274C0080BC704780B483B000AF786000BF0C379A
:10275C00BD4680BC704780B483B000AF786000BFCA
:10276C000C37BD4680BC704780B485B000AF786034
:10277C0039607B681B68FB607B68254A934207D0F5
:10278C007B68B3F1804F03D07B68224A934208D117
:10279C00FB6823F07003FB603B685B68FA681343CB
:1027AC00FB607B681A4A934207D07B68B3F1804F79
:1027BC0003D07B68174A934208D1FB6823F440731B
:1027CC00FB603B68DB68FA681343FB60FB6823F033
:1027DC0080023B685B691343FB607B68FA681A6094
:1027EC003B689A687B68DA623B681A687B689A6215
:1027FC007B68074A934203D13B681A697B681A636A
:10280C007B6801225A6100BF1437BD4680BC7047FB
:10281C00002C01400004004080B487B000AFF86089
:10282C00B9607A60FB681B6A7B61FB681B6A23F0EA
:10283C000102FB681A62FB689B693B613B6923F0F0
:10284C00F0033B617B681B013A6913433B617B6975
:10285C0023F00A037B617A69BB6813437B61FB68D5
:10286C003A699A61FB687A691A6200BF1C37BD46E7
:10287C0080BC704780B487B000AFF860B9607A60F4
:10288C00FB681B6A23F01002FB681A62FB689B69E9
:10289C007B61FB681B6A3B617B6923F470437B6142
:1028AC007B681B037A6913437B613B6923F0A003AC
:1028BC003B61BB681B013A6913433B61FB687A6956
:1028CC009A61FB683A691A6200BF1C37BD4680BC2E
:1028DC00704780B485B000AF786039607B689B68C6
:1028EC00FB60FB6823F07003FB603A68FB681343E2
:1028FC0043F00703FB607B68FA689A6000BF1437EB
:10290C00BD4680BC704780B487B000AFF860B9603A
:10291C007A603B60FB689B687B617B6923F47F4337
:10292C007B613B681A027B681A43BB6813437A6964
:10293C0013437B61FB687A699A6000BF1C37BD4604
:10294C0080BC704780B485B000AF786039607B681C
:10295C0093F83C30012B01D1022341E07B6801222A
:10296C0083F83C207B68022283F83D207B681B683F
:10297C005B68FB607B681B689B68BB60FB6823F033
:10298C007003FB603B681B68FA681343FB607B6851
:10299C001B68FA685A607B681B68144A934209D01A
:1029AC007B681B68B3F1804F04D07B681B68104AAE
:1029BC0093420CD1BB6823F08003BB603B685B681F
:1029CC00BA681343BB607B681B68BA689A607B6803
:1029DC00012283F83D207B68002283F83C200023F1
:1029EC0018461437BD4680BC704700BF002C014010
:1029FC000004004080B483B000AF786000BF0C3797
:102A0C00BD4680BC704780B483B000AF786000BF17
:102A1C000C37BD4680BC704770B500260C4D0D4C74
:102A2C00641BA410A64209D100F022F800260A4D1E
:102A3C000A4C641BA410A64205D170BD55F8043B8A
:102A4C0098470136EEE755F8043B98470136F2E714
:102A5C00B42A0008B42A0008B42A0008B82A0008CE
:102A6C0003460244934200D1704703F8011BF9E777
:102A7C00F8B500BFF8BC08BC9E467047F8B500BF5F
:082A8C00F8BC08BC9E4670472F
:102A940002030405060708090A0B0C0D0E0F10109B
:102AA40000000000000000000102030406070809FA
:042AB40031010008E4
:042AB8000D01000804
:102ABC0014000000140000001400000001000000CD
:102ACC0001000000010000000100000001000000F6
:102ADC0001000000010000000100000001000000E6
:102AEC000100000001000000010000000A000000CD
:102AFC000C00000088130000D0070000B80B000089
:102B0C00E80300000024F4001000000001000000A5
:04000005080013DDFF
:00000001FF
